{
  "contractName": "BlackJack",
  "abi": [
    {
      "inputs": [
        {
          "internalType": "contract FishkaToken",
          "name": "_token",
          "type": "address"
        }
      ],
      "payable": false,
      "stateMutability": "nonpayable",
      "type": "constructor"
    },
    {
      "anonymous": false,
      "inputs": [
        {
          "indexed": false,
          "internalType": "address",
          "name": "d",
          "type": "address"
        },
        {
          "indexed": false,
          "internalType": "uint256",
          "name": "sumd",
          "type": "uint256"
        },
        {
          "indexed": false,
          "internalType": "address",
          "name": "p",
          "type": "address"
        },
        {
          "indexed": false,
          "internalType": "uint256",
          "name": "sump",
          "type": "uint256"
        }
      ],
      "name": "Compare",
      "type": "event"
    },
    {
      "anonymous": false,
      "inputs": [
        {
          "indexed": false,
          "internalType": "address",
          "name": "_from",
          "type": "address"
        },
        {
          "indexed": false,
          "internalType": "uint256",
          "name": "_value",
          "type": "uint256"
        }
      ],
      "name": "Deposit",
      "type": "event"
    },
    {
      "anonymous": false,
      "inputs": [
        {
          "indexed": false,
          "internalType": "address",
          "name": "_from",
          "type": "address"
        },
        {
          "indexed": false,
          "internalType": "uint256",
          "name": "sum",
          "type": "uint256"
        }
      ],
      "name": "Get_Cards",
      "type": "event"
    },
    {
      "constant": true,
      "inputs": [
        {
          "internalType": "uint256",
          "name": "",
          "type": "uint256"
        }
      ],
      "name": "deck",
      "outputs": [
        {
          "internalType": "string",
          "name": "name",
          "type": "string"
        },
        {
          "internalType": "uint8",
          "name": "rate",
          "type": "uint8"
        }
      ],
      "payable": false,
      "stateMutability": "view",
      "type": "function"
    },
    {
      "constant": true,
      "inputs": [],
      "name": "standD",
      "outputs": [
        {
          "internalType": "bool",
          "name": "",
          "type": "bool"
        }
      ],
      "payable": false,
      "stateMutability": "view",
      "type": "function"
    },
    {
      "constant": true,
      "inputs": [],
      "name": "standP",
      "outputs": [
        {
          "internalType": "bool",
          "name": "",
          "type": "bool"
        }
      ],
      "payable": false,
      "stateMutability": "view",
      "type": "function"
    },
    {
      "constant": true,
      "inputs": [],
      "name": "winner",
      "outputs": [
        {
          "internalType": "address",
          "name": "",
          "type": "address"
        }
      ],
      "payable": false,
      "stateMutability": "view",
      "type": "function"
    },
    {
      "constant": true,
      "inputs": [],
      "name": "get_winner",
      "outputs": [
        {
          "internalType": "address",
          "name": "",
          "type": "address"
        }
      ],
      "payable": false,
      "stateMutability": "view",
      "type": "function"
    },
    {
      "constant": true,
      "inputs": [],
      "name": "get_stand_dealer",
      "outputs": [
        {
          "internalType": "bool",
          "name": "",
          "type": "bool"
        }
      ],
      "payable": false,
      "stateMutability": "view",
      "type": "function"
    },
    {
      "constant": true,
      "inputs": [],
      "name": "get_stand_player",
      "outputs": [
        {
          "internalType": "bool",
          "name": "",
          "type": "bool"
        }
      ],
      "payable": false,
      "stateMutability": "view",
      "type": "function"
    },
    {
      "constant": true,
      "inputs": [],
      "name": "get_dealer_name",
      "outputs": [
        {
          "internalType": "address",
          "name": "",
          "type": "address"
        }
      ],
      "payable": false,
      "stateMutability": "view",
      "type": "function"
    },
    {
      "constant": true,
      "inputs": [],
      "name": "get_player_name",
      "outputs": [
        {
          "internalType": "address",
          "name": "",
          "type": "address"
        }
      ],
      "payable": false,
      "stateMutability": "view",
      "type": "function"
    },
    {
      "constant": true,
      "inputs": [],
      "name": "get_cards_amount",
      "outputs": [
        {
          "internalType": "uint256",
          "name": "count",
          "type": "uint256"
        }
      ],
      "payable": false,
      "stateMutability": "view",
      "type": "function"
    },
    {
      "constant": true,
      "inputs": [],
      "name": "get_balance_player",
      "outputs": [
        {
          "internalType": "uint256",
          "name": "cash",
          "type": "uint256"
        }
      ],
      "payable": false,
      "stateMutability": "view",
      "type": "function"
    },
    {
      "constant": true,
      "inputs": [],
      "name": "get_balance_dealer",
      "outputs": [
        {
          "internalType": "uint256",
          "name": "cash",
          "type": "uint256"
        }
      ],
      "payable": false,
      "stateMutability": "view",
      "type": "function"
    },
    {
      "constant": true,
      "inputs": [],
      "name": "get_player_sum",
      "outputs": [
        {
          "internalType": "uint32",
          "name": "",
          "type": "uint32"
        }
      ],
      "payable": false,
      "stateMutability": "view",
      "type": "function"
    },
    {
      "constant": true,
      "inputs": [],
      "name": "get_dealer_sum",
      "outputs": [
        {
          "internalType": "uint32",
          "name": "",
          "type": "uint32"
        }
      ],
      "payable": false,
      "stateMutability": "view",
      "type": "function"
    },
    {
      "constant": false,
      "inputs": [
        {
          "internalType": "uint256",
          "name": "value",
          "type": "uint256"
        }
      ],
      "name": "choose_dealer",
      "outputs": [],
      "payable": false,
      "stateMutability": "nonpayable",
      "type": "function"
    },
    {
      "constant": false,
      "inputs": [
        {
          "internalType": "uint256",
          "name": "value",
          "type": "uint256"
        }
      ],
      "name": "choose_player",
      "outputs": [],
      "payable": false,
      "stateMutability": "nonpayable",
      "type": "function"
    },
    {
      "constant": false,
      "inputs": [
        {
          "internalType": "uint256",
          "name": "value",
          "type": "uint256"
        }
      ],
      "name": "add_money_player",
      "outputs": [],
      "payable": true,
      "stateMutability": "payable",
      "type": "function"
    },
    {
      "constant": false,
      "inputs": [
        {
          "internalType": "uint256",
          "name": "value",
          "type": "uint256"
        }
      ],
      "name": "add_money_dealer",
      "outputs": [],
      "payable": true,
      "stateMutability": "payable",
      "type": "function"
    },
    {
      "constant": false,
      "inputs": [],
      "name": "giveCards",
      "outputs": [],
      "payable": false,
      "stateMutability": "nonpayable",
      "type": "function"
    },
    {
      "constant": false,
      "inputs": [],
      "name": "hit_dealer",
      "outputs": [],
      "payable": false,
      "stateMutability": "nonpayable",
      "type": "function"
    },
    {
      "constant": false,
      "inputs": [],
      "name": "hit_player",
      "outputs": [],
      "payable": false,
      "stateMutability": "nonpayable",
      "type": "function"
    },
    {
      "constant": false,
      "inputs": [],
      "name": "stand",
      "outputs": [],
      "payable": false,
      "stateMutability": "nonpayable",
      "type": "function"
    },
    {
      "constant": false,
      "inputs": [],
      "name": "check_cards",
      "outputs": [],
      "payable": false,
      "stateMutability": "nonpayable",
      "type": "function"
    },
    {
      "constant": false,
      "inputs": [],
      "name": "checkWinner",
      "outputs": [],
      "payable": false,
      "stateMutability": "nonpayable",
      "type": "function"
    },
    {
      "constant": true,
      "inputs": [],
      "name": "check",
      "outputs": [
        {
          "internalType": "address",
          "name": "",
          "type": "address"
        }
      ],
      "payable": false,
      "stateMutability": "view",
      "type": "function"
    }
  ],
  "bytecode": "0x60806040526000600b553480156200001657600080fd5b5060405162003d5c38038062003d5c833981810160405260208110156200003c57600080fd5b8101908080519060200190929190505050806000806101000a81548173ffffffffffffffffffffffffffffffffffffffff021916908373ffffffffffffffffffffffffffffffffffffffff1602179055506000600560010181905550600060018001819055506000600560020160006101000a81548163ffffffff021916908363ffffffff1602179055506000600160020160016101000a81548163ffffffff021916908363ffffffff160217905550620000fc6200010360201b60201c565b506200070b565b6034600a60166101000a81548163ffffffff021916908363ffffffff16021790555060008090505b60048160ff161015620004f8576000600290505b600a8160ff1611620001f157600960405180604001604052806200016984620004fb60201b60201c565b81526020018360ff16815250908060018154018082558091505090600182039060005260206000209060020201600090919290919091506000820151816000019080519060200190620001be9291906200065c565b5060208201518160010160006101000a81548160ff021916908360ff16021790555050505080806001019150506200013f565b50600960405180604001604052806040518060400160405280600481526020017f4a61636b000000000000000000000000000000000000000000000000000000008152508152602001600a60ff168152509080600181540180825580915050906001820390600052602060002090600202016000909192909190915060008201518160000190805190602001906200028b9291906200065c565b5060208201518160010160006101000a81548160ff021916908360ff160217905550505050600960405180604001604052806040518060400160405280600481526020017f4c616479000000000000000000000000000000000000000000000000000000008152508152602001600a60ff16815250908060018154018082558091505090600182039060005260206000209060020201600090919290919091506000820151816000019080519060200190620003499291906200065c565b5060208201518160010160006101000a81548160ff021916908360ff160217905550505050600960405180604001604052806040518060400160405280600481526020017f4b696e67000000000000000000000000000000000000000000000000000000008152508152602001600a60ff16815250908060018154018082558091505090600182039060005260206000209060020201600090919290919091506000820151816000019080519060200190620004079291906200065c565b5060208201518160010160006101000a81548160ff021916908360ff160217905550505050600960405180604001604052806040518060400160405280600381526020017f41636500000000000000000000000000000000000000000000000000000000008152508152602001600b60ff16815250908060018154018082558091505090600182039060005260206000209060020201600090919290919091506000820151816000019080519060200190620004c59291906200065c565b5060208201518160010160006101000a81548160ff021916908360ff16021790555050505080806001019150506200012b565b50565b606060008260ff16141562000548576040518060400160405280600181526020017f3000000000000000000000000000000000000000000000000000000000000000815250905062000657565b60008260ff16905060008090505b600082146200057b578080600101915050600a82816200057257fe5b04915062000556565b6060816040519080825280601f01601f191660200182016040528015620005b15781602001600182028038833980820191505090505b50905060008290505b6001156200064f576001810390506000600a808860ff1681620005d957fe5b04028703603001905060008160f81b905080848481518110620005f857fe5b60200101907effffffffffffffffffffffffffffffffffffffffffffffffffffffffffffff1916908160001a905350600a8860ff16816200063557fe5b04975060008860ff16146200064c575050620005ba565b50505b819450505050505b919050565b828054600181600116156101000203166002900490600052602060002090601f016020900481019282601f106200069f57805160ff1916838001178555620006d0565b82800160010185558215620006d0579182015b82811115620006cf578251825591602001919060010190620006b2565b5b509050620006df9190620006e3565b5090565b6200070891905b8082111562000704576000816000905550600101620006ea565b5090565b90565b613641806200071b6000396000f3fe6080604052600436106101665760003560e01c8063a0726729116100d1578063c2897b101161008a578063dfbf53ae11610064578063dfbf53ae14610633578063e3107de91461068a578063f1924820146106a1578063f53f1f30146106b857610166565b8063c2897b10146105ce578063cb2ab6b6146105e5578063d0fc60bd1461061c57610166565b8063a072672914610485578063ab3ea181146104b3578063ad38867e146104de578063bb4c4f1c146104f5578063bf571fe11461054c578063c08357b3146105a357610166565b806365c5d4251161012357806365c5d4251461034f5780637310c2ef14610366578063766152e2146103955780638831d5c4146103c4578063919840ad146103ff578063a011da021461045657610166565b80632850ed801461016b5780633b5249f0146101965780633f7063a2146101cd5780634b7adff8146101fc5780635a12c1721461025357806365b1dafa1461028e575b600080fd5b34801561017757600080fd5b506101806106e6565b6040518082815260200191505060405180910390f35b3480156101a257600080fd5b506101ab6106f3565b604051808263ffffffff1663ffffffff16815260200191505060405180910390f35b3480156101d957600080fd5b506101e2610710565b604051808215151515815260200191505060405180910390f35b34801561020857600080fd5b50610211610723565b604051808273ffffffffffffffffffffffffffffffffffffffff1673ffffffffffffffffffffffffffffffffffffffff16815260200191505060405180910390f35b34801561025f57600080fd5b5061028c6004803603602081101561027657600080fd5b8101908080359060200190929190505050610750565b005b34801561029a57600080fd5b506102c7600480360360208110156102b157600080fd5b8101908080359060200190929190505050610a11565b60405180806020018360ff1660ff168152602001828103825284818151815260200191508051906020019080838360005b838110156103135780820151818401526020810190506102f8565b50505050905090810190601f1680156103405780820380516001836020036101000a031916815260200191505b50935050505060405180910390f35b34801561035b57600080fd5b50610364610ae7565b005b34801561037257600080fd5b5061037b610cec565b604051808215151515815260200191505060405180910390f35b3480156103a157600080fd5b506103aa610cff565b604051808215151515815260200191505060405180910390f35b3480156103d057600080fd5b506103fd600480360360208110156103e757600080fd5b8101908080359060200190929190505050610d16565b005b34801561040b57600080fd5b50610414610fd6565b604051808273ffffffffffffffffffffffffffffffffffffffff1673ffffffffffffffffffffffffffffffffffffffff16815260200191505060405180910390f35b34801561046257600080fd5b5061046b611000565b604051808215151515815260200191505060405180910390f35b6104b16004803603602081101561049b57600080fd5b8101908080359060200190929190505050611017565b005b3480156104bf57600080fd5b506104c861129a565b6040518082815260200191505060405180910390f35b3480156104ea57600080fd5b506104f36112ba565b005b34801561050157600080fd5b5061050a611af0565b604051808273ffffffffffffffffffffffffffffffffffffffff1673ffffffffffffffffffffffffffffffffffffffff16815260200191505060405180910390f35b34801561055857600080fd5b50610561611b1a565b604051808273ffffffffffffffffffffffffffffffffffffffff1673ffffffffffffffffffffffffffffffffffffffff16815260200191505060405180910390f35b3480156105af57600080fd5b506105b8611b47565b6040518082815260200191505060405180910390f35b3480156105da57600080fd5b506105e3611b53565b005b3480156105f157600080fd5b506105fa611e05565b604051808263ffffffff1663ffffffff16815260200191505060405180910390f35b34801561062857600080fd5b50610631611e22565b005b34801561063f57600080fd5b5061064861228a565b604051808273ffffffffffffffffffffffffffffffffffffffff1673ffffffffffffffffffffffffffffffffffffffff16815260200191505060405180910390f35b34801561069657600080fd5b5061069f6122b0565b005b3480156106ad57600080fd5b506106b66124d3565b005b6106e4600480360360208110156106ce57600080fd5b8101908080359060200190929190505050612a60565b005b6000600560010154905090565b6000600560020160009054906101000a900463ffffffff16905090565b600a60159054906101000a900460ff1681565b6000600560000160009054906101000a900473ffffffffffffffffffffffffffffffffffffffff16905090565b80806000809054906101000a900473ffffffffffffffffffffffffffffffffffffffff1673ffffffffffffffffffffffffffffffffffffffff166370a08231336040518263ffffffff1660e01b8152600401808273ffffffffffffffffffffffffffffffffffffffff1673ffffffffffffffffffffffffffffffffffffffff16815260200191505060206040518083038186803b1580156107f057600080fd5b505afa158015610804573d6000803e3d6000fd5b505050506040513d602081101561081a57600080fd5b81019080805190602001909291905050501015610882576040517f08c379a00000000000000000000000000000000000000000000000000000000081526004018080602001828103825260228152602001806135eb6022913960400191505060405180910390fd5b8160056001018190555033600560000160006101000a81548173ffffffffffffffffffffffffffffffffffffffff021916908373ffffffffffffffffffffffffffffffffffffffff1602179055506000809054906101000a900473ffffffffffffffffffffffffffffffffffffffff1673ffffffffffffffffffffffffffffffffffffffff166323b872dd600560000160009054906101000a900473ffffffffffffffffffffffffffffffffffffffff1630856040518463ffffffff1660e01b8152600401808473ffffffffffffffffffffffffffffffffffffffff1673ffffffffffffffffffffffffffffffffffffffff1681526020018373ffffffffffffffffffffffffffffffffffffffff1673ffffffffffffffffffffffffffffffffffffffff1681526020018281526020019350505050602060405180830381600087803b1580156109d157600080fd5b505af11580156109e5573d6000803e3d6000fd5b505050506040513d60208110156109fb57600080fd5b8101908080519060200190929190505050505050565b60098181548110610a1e57fe5b9060005260206000209060020201600091509050806000018054600181600116156101000203166002900480601f016020809104026020016040519081016040528092919081815260200182805460018160011615610100020316600290048015610aca5780601f10610a9f57610100808354040283529160200191610aca565b820191906000526020600020905b815481529060010190602001808311610aad57829003601f168201915b5050505050908060010160009054906101000a900460ff16905082565b600160020160009054906101000a900460ff16610b6c576040517f08c379a00000000000000000000000000000000000000000000000000000000081526004018080602001828103825260198152602001807f506c6179657220646f65736e277420686176652063617264730000000000000081525060200191505060405180910390fd5b6000600160020160016101000a81548163ffffffff021916908363ffffffff1602179055506000600560020160006101000a81548163ffffffff021916908363ffffffff16021790555060008090505b6001600301805490508163ffffffff161015610c4f5760016003018163ffffffff1681548110610be857fe5b906000526020600020906002020160010160009054906101000a900460ff1660ff16600160020160018282829054906101000a900463ffffffff160192506101000a81548163ffffffff021916908363ffffffff1602179055508080600101915050610bbc565b5060008090505b6005600301805490508163ffffffff161015610ce95760056003018163ffffffff1681548110610c8257fe5b906000526020600020906002020160010160009054906101000a900460ff1660ff16600560020160008282829054906101000a900463ffffffff160192506101000a81548163ffffffff021916908363ffffffff1602179055508080600101915050610c56565b50565b600a60149054906101000a900460ff1681565b6000600a60149054906101000a900460ff16905090565b80806000809054906101000a900473ffffffffffffffffffffffffffffffffffffffff1673ffffffffffffffffffffffffffffffffffffffff166370a08231336040518263ffffffff1660e01b8152600401808273ffffffffffffffffffffffffffffffffffffffff1673ffffffffffffffffffffffffffffffffffffffff16815260200191505060206040518083038186803b158015610db657600080fd5b505afa158015610dca573d6000803e3d6000fd5b505050506040513d6020811015610de057600080fd5b81019080805190602001909291905050501015610e48576040517f08c379a00000000000000000000000000000000000000000000000000000000081526004018080602001828103825260228152602001806135eb6022913960400191505060405180910390fd5b81600180018190555033600160000160006101000a81548173ffffffffffffffffffffffffffffffffffffffff021916908373ffffffffffffffffffffffffffffffffffffffff1602179055506000809054906101000a900473ffffffffffffffffffffffffffffffffffffffff1673ffffffffffffffffffffffffffffffffffffffff166323b872dd600160000160009054906101000a900473ffffffffffffffffffffffffffffffffffffffff1630856040518463ffffffff1660e01b8152600401808473ffffffffffffffffffffffffffffffffffffffff1673ffffffffffffffffffffffffffffffffffffffff1681526020018373ffffffffffffffffffffffffffffffffffffffff1673ffffffffffffffffffffffffffffffffffffffff1681526020018281526020019350505050602060405180830381600087803b158015610f9657600080fd5b505af1158015610faa573d6000803e3d6000fd5b505050506040513d6020811015610fc057600080fd5b8101908080519060200190929190505050505050565b6000600a60009054906101000a900473ffffffffffffffffffffffffffffffffffffffff16905090565b6000600a60159054906101000a900460ff16905090565b600160000160009054906101000a900473ffffffffffffffffffffffffffffffffffffffff1673ffffffffffffffffffffffffffffffffffffffff163373ffffffffffffffffffffffffffffffffffffffff16146110dd576040517f08c379a000000000000000000000000000000000000000000000000000000000815260040180806020018281038252601a8152602001807f4f6e6c7920706c617965722063616e2063616c6c20746869732e00000000000081525060200191505060405180910390fd5b8060018001600082825401925050819055506000809054906101000a900473ffffffffffffffffffffffffffffffffffffffff1673ffffffffffffffffffffffffffffffffffffffff166323b872dd600160000160009054906101000a900473ffffffffffffffffffffffffffffffffffffffff1630846040518463ffffffff1660e01b8152600401808473ffffffffffffffffffffffffffffffffffffffff1673ffffffffffffffffffffffffffffffffffffffff1681526020018373ffffffffffffffffffffffffffffffffffffffff1673ffffffffffffffffffffffffffffffffffffffff1681526020018281526020019350505050602060405180830381600087803b1580156111f057600080fd5b505af1158015611204573d6000803e3d6000fd5b505050506040513d602081101561121a57600080fd5b8101908080519060200190929190505050507fe1fffcc4923d04b559f4d29a8bfc6cda04eb5b0d3c460751c2402c5c5cc9109c3382604051808373ffffffffffffffffffffffffffffffffffffffff1673ffffffffffffffffffffffffffffffffffffffff1681526020018281526020019250505060405180910390a150565b6000600a60169054906101000a900463ffffffff1663ffffffff16905090565b600560010154600180015414611338576040517f08c379a00000000000000000000000000000000000000000000000000000000081526004018080602001828103825260178152602001807f5261746573206d757374206265207468652073616d652e00000000000000000081525060200191505060405180910390fd5b60011515600a60149054906101000a900460ff16151514801561136e575060011515600a60159054906101000a900460ff161515145b6113e0576040517f08c379a00000000000000000000000000000000000000000000000000000000081526004018080602001828103825260138152602001807f4e6f7420616c6c206d61646520277374616e640000000000000000000000000081525060200191505060405180910390fd5b600560020160009054906101000a900463ffffffff1663ffffffff16600160020160019054906101000a900463ffffffff1663ffffffff1611801561144157506015600160020160019054906101000a900463ffffffff1663ffffffff1611155b801561146957506015600560020160009054906101000a900463ffffffff1663ffffffff1611155b156115ed576000809054906101000a900473ffffffffffffffffffffffffffffffffffffffff1673ffffffffffffffffffffffffffffffffffffffff1663a9059cbb600160000160009054906101000a900473ffffffffffffffffffffffffffffffffffffffff166001800154600560010154016040518363ffffffff1660e01b8152600401808373ffffffffffffffffffffffffffffffffffffffff1673ffffffffffffffffffffffffffffffffffffffff16815260200182815260200192505050602060405180830381600087803b15801561154657600080fd5b505af115801561155a573d6000803e3d6000fd5b505050506040513d602081101561157057600080fd5b810190808051906020019092919050505050600160000160009054906101000a900473ffffffffffffffffffffffffffffffffffffffff16600a60006101000a81548173ffffffffffffffffffffffffffffffffffffffff021916908373ffffffffffffffffffffffffffffffffffffffff1602179055506119c7565b600560020160009054906101000a900463ffffffff1663ffffffff16600160020160019054906101000a900463ffffffff1663ffffffff16141561184b576000809054906101000a900473ffffffffffffffffffffffffffffffffffffffff1673ffffffffffffffffffffffffffffffffffffffff1663a9059cbb600160000160009054906101000a900473ffffffffffffffffffffffffffffffffffffffff166005600101546040518363ffffffff1660e01b8152600401808373ffffffffffffffffffffffffffffffffffffffff1673ffffffffffffffffffffffffffffffffffffffff16815260200182815260200192505050602060405180830381600087803b1580156116fd57600080fd5b505af1158015611711573d6000803e3d6000fd5b505050506040513d602081101561172757600080fd5b8101908080519060200190929190505050506000809054906101000a900473ffffffffffffffffffffffffffffffffffffffff1673ffffffffffffffffffffffffffffffffffffffff1663a9059cbb600560000160009054906101000a900473ffffffffffffffffffffffffffffffffffffffff1660018001546040518363ffffffff1660e01b8152600401808373ffffffffffffffffffffffffffffffffffffffff1673ffffffffffffffffffffffffffffffffffffffff16815260200182815260200192505050602060405180830381600087803b15801561180a57600080fd5b505af115801561181e573d6000803e3d6000fd5b505050506040513d602081101561183457600080fd5b8101908080519060200190929190505050506119c6565b6000809054906101000a900473ffffffffffffffffffffffffffffffffffffffff1673ffffffffffffffffffffffffffffffffffffffff1663a9059cbb600560000160009054906101000a900473ffffffffffffffffffffffffffffffffffffffff166005600101546001800154016040518363ffffffff1660e01b8152600401808373ffffffffffffffffffffffffffffffffffffffff1673ffffffffffffffffffffffffffffffffffffffff16815260200182815260200192505050602060405180830381600087803b15801561192357600080fd5b505af1158015611937573d6000803e3d6000fd5b505050506040513d602081101561194d57600080fd5b810190808051906020019092919050505050600560000160009054906101000a900473ffffffffffffffffffffffffffffffffffffffff16600a60006101000a81548173ffffffffffffffffffffffffffffffffffffffff021916908373ffffffffffffffffffffffffffffffffffffffff1602179055505b5b7f801142d4815df6228c2504370343b430ea366897420d133fe209e047747106ba600560000160009054906101000a900473ffffffffffffffffffffffffffffffffffffffff16600560020160009054906101000a900463ffffffff16600160000160009054906101000a900473ffffffffffffffffffffffffffffffffffffffff16600160020160019054906101000a900463ffffffff16604051808573ffffffffffffffffffffffffffffffffffffffff1673ffffffffffffffffffffffffffffffffffffffff1681526020018463ffffffff1681526020018373ffffffffffffffffffffffffffffffffffffffff1673ffffffffffffffffffffffffffffffffffffffff1681526020018263ffffffff16815260200194505050505060405180910390a1565b6000600a60009054906101000a900473ffffffffffffffffffffffffffffffffffffffff16905090565b6000600160000160009054906101000a900473ffffffffffffffffffffffffffffffffffffffff16905090565b60006001800154905090565b600560000160009054906101000a900473ffffffffffffffffffffffffffffffffffffffff1673ffffffffffffffffffffffffffffffffffffffff163373ffffffffffffffffffffffffffffffffffffffff161415611cda576001600a60156101000a81548160ff0219169083151502179055506000809054906101000a900473ffffffffffffffffffffffffffffffffffffffff1673ffffffffffffffffffffffffffffffffffffffff1663095ea7b3600160000160009054906101000a900473ffffffffffffffffffffffffffffffffffffffff166005600101546040518363ffffffff1660e01b8152600401808373ffffffffffffffffffffffffffffffffffffffff1673ffffffffffffffffffffffffffffffffffffffff16815260200182815260200192505050602060405180830381600087803b158015611c9957600080fd5b505af1158015611cad573d6000803e3d6000fd5b505050506040513d6020811015611cc357600080fd5b810190808051906020019092919050505050611e03565b6001600a60146101000a81548160ff0219169083151502179055506000809054906101000a900473ffffffffffffffffffffffffffffffffffffffff1673ffffffffffffffffffffffffffffffffffffffff1663095ea7b3600560000160009054906101000a900473ffffffffffffffffffffffffffffffffffffffff1660018001546040518363ffffffff1660e01b8152600401808373ffffffffffffffffffffffffffffffffffffffff1673ffffffffffffffffffffffffffffffffffffffff16815260200182815260200192505050602060405180830381600087803b158015611dc657600080fd5b505af1158015611dda573d6000803e3d6000fd5b505050506040513d6020811015611df057600080fd5b8101908080519060200190929190505050505b565b6000600160020160019054906101000a900463ffffffff16905090565b600560000160009054906101000a900473ffffffffffffffffffffffffffffffffffffffff1673ffffffffffffffffffffffffffffffffffffffff163373ffffffffffffffffffffffffffffffffffffffff1614611ee8576040517f08c379a000000000000000000000000000000000000000000000000000000000815260040180806020018281038252601a8152602001807f4f6e6c79206465616c65722063616e2063616c6c20746869732e00000000000081525060200191505060405180910390fd5b611ef0610ae7565b6011600560020160009054906101000a900463ffffffff1663ffffffff161115611f82576040517f08c379a00000000000000000000000000000000000000000000000000000000081526004018080602001828103825260148152602001807f546f74616c20706f696e7473206f76657220313700000000000000000000000081525060200191505060405180910390fd5b6000611f8c612d62565b9050600560030160098281548110611fa057fe5b906000526020600020906002020190806001815401808255809150509060018203906000526020600020906002020160009091929091909150600082018160000190805460018160011615610100020316600290046120009291906134f6565b506001820160009054906101000a900460ff168160010160006101000a81548160ff021916908360ff1602179055505050506009818154811061203f57fe5b906000526020600020906002020160010160009054906101000a900460ff1660ff16600560020160008282829054906101000a900463ffffffff160192506101000a81548163ffffffff021916908363ffffffff16021790555060096001600a60169054906101000a900463ffffffff160363ffffffff16815481106120c157fe5b9060005260206000209060020201600982815481106120dc57fe5b9060005260206000209060020201600082018160000190805460018160011615610100020316600290046121119291906134f6565b506001820160009054906101000a900460ff168160010160006101000a81548160ff021916908360ff16021790555090505060096001600a60169054906101000a900463ffffffff160363ffffffff168154811061216b57fe5b90600052602060002090600202016000808201600061218a919061357d565b6001820160006101000a81549060ff02191690555050600a601681819054906101000a900463ffffffff16809291906001900391906101000a81548163ffffffff021916908363ffffffff160217905550507fb79970cf7e85476cae318f2f10e3b68525cf8e5b3a153f12a89ecb2f2edf9a01600560000160009054906101000a900473ffffffffffffffffffffffffffffffffffffffff16600560020160009054906101000a900463ffffffff16604051808373ffffffffffffffffffffffffffffffffffffffff1673ffffffffffffffffffffffffffffffffffffffff1681526020018263ffffffff1681526020019250505060405180910390a150565b600a60009054906101000a900473ffffffffffffffffffffffffffffffffffffffff1681565b600160000160009054906101000a900473ffffffffffffffffffffffffffffffffffffffff1673ffffffffffffffffffffffffffffffffffffffff163373ffffffffffffffffffffffffffffffffffffffff1614612376576040517f08c379a000000000000000000000000000000000000000000000000000000000815260040180806020018281038252601a8152602001807f4f6e6c7920706c617965722063616e2063616c6c20746869732e00000000000081525060200191505060405180910390fd5b61237e610ae7565b6015600160020160019054906101000a900463ffffffff1663ffffffff161115612410576040517f08c379a00000000000000000000000000000000000000000000000000000000081526004018080602001828103825260208152602001807f596f75277665206c6f73742e546f74616c20706f696e7473206f76657220323181525060200191505060405180910390fd5b600061241a612d62565b905061242581612dff565b7fb79970cf7e85476cae318f2f10e3b68525cf8e5b3a153f12a89ecb2f2edf9a01600160000160009054906101000a900473ffffffffffffffffffffffffffffffffffffffff16600160020160019054906101000a900463ffffffff16604051808373ffffffffffffffffffffffffffffffffffffffff1673ffffffffffffffffffffffffffffffffffffffff1681526020018263ffffffff1681526020019250505060405180910390a150565b600560000160009054906101000a900473ffffffffffffffffffffffffffffffffffffffff1673ffffffffffffffffffffffffffffffffffffffff163373ffffffffffffffffffffffffffffffffffffffff1614612599576040517f08c379a000000000000000000000000000000000000000000000000000000000815260040180806020018281038252601a8152602001807f4f6e6c79206465616c65722063616e2063616c6c20746869732e00000000000081525060200191505060405180910390fd5b600160020160009054906101000a900460ff161561261f576040517f08c379a000000000000000000000000000000000000000000000000000000000815260040180806020018281038252601d8152602001807f54686520706c6179657220616c7265616479206861732063617264732e00000081525060200191505060405180910390fd5b6000600980549050141561269b576040517f08c379a000000000000000000000000000000000000000000000000000000000815260040180806020018281038252601a8152602001807f4e6f206d6f726520636172647320696e20746865206465636b2100000000000081525060200191505060405180910390fd5b60006126a5612d62565b90506005600301600982815481106126b957fe5b906000526020600020906002020190806001815401808255809150509060018203906000526020600020906002020160009091929091909150600082018160000190805460018160011615610100020316600290046127199291906134f6565b506001820160009054906101000a900460ff168160010160006101000a81548160ff021916908360ff1602179055505050506009818154811061275857fe5b906000526020600020906002020160010160009054906101000a900460ff1660ff16600560020160008282829054906101000a900463ffffffff160192506101000a81548163ffffffff021916908363ffffffff16021790555060096001600a60169054906101000a900463ffffffff160363ffffffff16815481106127da57fe5b9060005260206000209060020201600982815481106127f557fe5b90600052602060002090600202016000820181600001908054600181600116156101000203166002900461282a9291906134f6565b506001820160009054906101000a900460ff168160010160006101000a81548160ff021916908360ff16021790555090505060096001600a60169054906101000a900463ffffffff160363ffffffff168154811061288457fe5b9060005260206000209060020201600080820160006128a3919061357d565b6001820160006101000a81549060ff02191690555050600a601681819054906101000a900463ffffffff16809291906001900391906101000a81548163ffffffff021916908363ffffffff1602179055505060006128ff612d62565b9050600061290b612d62565b90506129178282613056565b60018060020160006101000a81548160ff0219169083151502179055507f801142d4815df6228c2504370343b430ea366897420d133fe209e047747106ba600560000160009054906101000a900473ffffffffffffffffffffffffffffffffffffffff16600560020160009054906101000a900463ffffffff16600160000160009054906101000a900473ffffffffffffffffffffffffffffffffffffffff16600160020160019054906101000a900463ffffffff16604051808573ffffffffffffffffffffffffffffffffffffffff1673ffffffffffffffffffffffffffffffffffffffff1681526020018463ffffffff1681526020018373ffffffffffffffffffffffffffffffffffffffff1673ffffffffffffffffffffffffffffffffffffffff1681526020018263ffffffff16815260200194505050505060405180910390a1505050565b600560000160009054906101000a900473ffffffffffffffffffffffffffffffffffffffff1673ffffffffffffffffffffffffffffffffffffffff163373ffffffffffffffffffffffffffffffffffffffff1614612b26576040517f08c379a000000000000000000000000000000000000000000000000000000000815260040180806020018281038252601a8152602001807f4f6e6c79206465616c65722063616e2063616c6c20746869732e00000000000081525060200191505060405180910390fd5b806005600101600082825401925050819055506000809054906101000a900473ffffffffffffffffffffffffffffffffffffffff1673ffffffffffffffffffffffffffffffffffffffff166323b872dd600560000160009054906101000a900473ffffffffffffffffffffffffffffffffffffffff1630846040518463ffffffff1660e01b8152600401808473ffffffffffffffffffffffffffffffffffffffff1673ffffffffffffffffffffffffffffffffffffffff1681526020018373ffffffffffffffffffffffffffffffffffffffff1673ffffffffffffffffffffffffffffffffffffffff1681526020018281526020019350505050602060405180830381600087803b158015612c3a57600080fd5b505af1158015612c4e573d6000803e3d6000fd5b505050506040513d6020811015612c6457600080fd5b8101908080519060200190929190505050507fe1fffcc4923d04b559f4d29a8bfc6cda04eb5b0d3c460751c2402c5c5cc9109c3382604051808373ffffffffffffffffffffffffffffffffffffffff1673ffffffffffffffffffffffffffffffffffffffff1681526020018281526020019250505060405180910390a1600560010154600180015414612d5f576040517f08c379a00000000000000000000000000000000000000000000000000000000081526004018080602001828103825260178152602001807f5261746573206d757374206265207468652073616d652e00000000000000000081525060200191505060405180910390fd5b50565b6000600b60008154809291906001019190505550600a60169054906101000a900463ffffffff1663ffffffff1633600b54604051602001808373ffffffffffffffffffffffffffffffffffffffff1673ffffffffffffffffffffffffffffffffffffffff1660601b8152601401828152602001925050506040516020818303038152906040528051906020012060001c81612df957fe5b06905090565b6000600990506001600301818381548110612e1657fe5b90600052602060002090600202019080600181540180825580915050906001820390600052602060002090600202016000909192909190915060008201816000019080546001816001161561010002031660029004612e769291906134f6565b506001820160009054906101000a900460ff168160010160006101000a81548160ff021916908360ff16021790555050505060098281548110612eb557fe5b906000526020600020906002020160010160009054906101000a900460ff1660ff16600160020160018282829054906101000a900463ffffffff160192506101000a81548163ffffffff021916908363ffffffff16021790555060096001600a60169054906101000a900463ffffffff160363ffffffff1681548110612f3757fe5b906000526020600020906002020160098381548110612f5257fe5b906000526020600020906002020160008201816000019080546001816001161561010002031660029004612f879291906134f6565b506001820160009054906101000a900460ff168160010160006101000a81548160ff021916908360ff16021790555090505060096001600a60169054906101000a900463ffffffff160363ffffffff1681548110612fe157fe5b906000526020600020906002020160008082016000613000919061357d565b6001820160006101000a81549060ff02191690555050600a601681819054906101000a900463ffffffff16809291906001900391906101000a81548163ffffffff021916908363ffffffff160217905550505050565b60016003016009838154811061306857fe5b906000526020600020906002020190806001815401808255809150509060018203906000526020600020906002020160009091929091909150600082018160000190805460018160011615610100020316600290046130c89291906134f6565b506001820160009054906101000a900460ff168160010160006101000a81548160ff021916908360ff1602179055505050506009828154811061310757fe5b906000526020600020906002020160010160009054906101000a900460ff1660ff16600160020160018282829054906101000a900463ffffffff160192506101000a81548163ffffffff021916908363ffffffff16021790555060096001600a60169054906101000a900463ffffffff160363ffffffff168154811061318957fe5b9060005260206000209060020201600983815481106131a457fe5b9060005260206000209060020201600082018160000190805460018160011615610100020316600290046131d99291906134f6565b506001820160009054906101000a900460ff168160010160006101000a81548160ff021916908360ff16021790555090505060096001600a60169054906101000a900463ffffffff160363ffffffff168154811061323357fe5b906000526020600020906002020160008082016000613252919061357d565b6001820160006101000a81549060ff02191690555050600a601681819054906101000a900463ffffffff16809291906001900391906101000a81548163ffffffff021916908363ffffffff160217905550506001600301600982815481106132b657fe5b906000526020600020906002020190806001815401808255809150509060018203906000526020600020906002020160009091929091909150600082018160000190805460018160011615610100020316600290046133169291906134f6565b506001820160009054906101000a900460ff168160010160006101000a81548160ff021916908360ff1602179055505050506009818154811061335557fe5b906000526020600020906002020160010160009054906101000a900460ff1660ff16600160020160018282829054906101000a900463ffffffff160192506101000a81548163ffffffff021916908363ffffffff16021790555060096001600a60169054906101000a900463ffffffff160363ffffffff16815481106133d757fe5b9060005260206000209060020201600982815481106133f257fe5b9060005260206000209060020201600082018160000190805460018160011615610100020316600290046134279291906134f6565b506001820160009054906101000a900460ff168160010160006101000a81548160ff021916908360ff16021790555090505060096001600a60169054906101000a900463ffffffff160363ffffffff168154811061348157fe5b9060005260206000209060020201600080820160006134a0919061357d565b6001820160006101000a81549060ff02191690555050600a601681819054906101000a900463ffffffff16809291906001900391906101000a81548163ffffffff021916908363ffffffff160217905550505050565b828054600181600116156101000203166002900490600052602060002090601f016020900481019282601f1061352f578054855561356c565b8280016001018555821561356c57600052602060002091601f016020900482015b8281111561356b578254825591600101919060010190613550565b5b50905061357991906135c5565b5090565b50805460018160011615610100020316600290046000825580601f106135a357506135c2565b601f0160209004906000526020600020908101906135c191906135c5565b5b50565b6135e791905b808211156135e35760008160009055506001016135cb565b5090565b9056fe596f75206e656564206d6f726520466973686b61546f6b656e7320746f20706c6179a265627a7a7231582037b832f12f61ce096968d174d47223e2ceb74c835df328febbda9d096d90f33264736f6c63430005100032",
  "source": "pragma solidity >=0.5.0 <0.8.0;\n// https://eips.ethereum.org/EIPS/eip-20\n// SPDX-License-Identifier: MIT\nimport \"./FishkaToken.sol\";\n\ncontract BlackJack {\n    struct Player {\n        address name; // \n        uint256 cashAmmount; // \n        bool hasCards;\n        uint32 sumPlayer;\n        Card[] cards;\n    }\n    struct Card {\n        string name; // \n        uint8 rate; //  \n    }\n    struct Dealer {\n        address name; // \n        uint256 cashAmmount; // \n        uint32 sumDealer; //  \n        Card[] cards;\n    }\n    FishkaToken token; // \n    Player player;\n    Dealer dealer;\n    Card[] public deck; // \n\n    address public winner;\n    bool public standP; //    \n    bool public standD; //    \n\n    uint32 constant Cards = 52;\n    uint32 ammountOfCards;\n\n    event Deposit(address _from, uint256 _value);\n    event Get_Cards(address _from, uint256 sum);\n    event Compare(address d, uint256 sumd, address p, uint256 sump);\n    modifier points_player() {\n        check_cards();\n        require(player.sumPlayer <= 21, \"You've lost.Total points over 21\");\n        _;\n    } //    \n\n    modifier points_dealer() {\n        check_cards();\n        require(dealer.sumDealer <= 17, \"Total points over 17\");\n        _;\n    } //    \n    modifier only_dealer() {\n        require(msg.sender == dealer.name, \"Only dealer can call this.\");\n        _;\n    }\n    modifier only_player() {\n        require(msg.sender == player.name, \"Only player can call this.\");\n        _;\n    }\n    modifier check_balance(uint256 value) {\n        require(\n            token.balanceOf(msg.sender) >= value,\n            \"You need more FishkaTokens to play\"\n        );\n        _;\n    }\n\n    function get_winner() external view returns (address) {\n        return winner;\n    }\n\n    function get_stand_dealer() external view returns (bool) {\n        return standD;\n    }\n\n    function get_stand_player() external view returns (bool) {\n        return standP;\n    }\n\n    function get_dealer_name() external view returns (address) {\n        return dealer.name;\n    }\n\n    function get_player_name() external view returns (address) {\n        return player.name;\n    }\n\n    function get_cards_amount() public view returns (uint count) {\n        return ammountOfCards;\n    }\n\n    function get_balance_player() public view returns (uint256 cash) {\n        return player.cashAmmount;\n    }\n\n    function get_balance_dealer() public view returns (uint256 cash) {\n        return dealer.cashAmmount;\n    }\n\n    function get_player_sum() public view returns (uint32) {\n        return player.sumPlayer;\n    }\n\n    function get_dealer_sum() public view returns (uint32) {\n        return dealer.sumDealer;\n    }\n\n    function choose_dealer(uint256 value) public check_balance(value) {\n        dealer.cashAmmount = value;\n\n        dealer.name = msg.sender;\n\n        token.transferFrom(dealer.name, address(this), value);\n    }\n\n    function choose_player(uint256 value) public check_balance(value) {\n        player.cashAmmount = value;\n        player.name = msg.sender;\n        token.transferFrom(player.name, address(this), value);\n    }\n\n    function add_money_player(uint256 value)\n        public\n        payable\n        only_player\n    //check_balance(player.cashAmmount + value)\n    {\n        player.cashAmmount += value;\n        token.transferFrom(player.name, address(this), value);\n        emit Deposit(msg.sender, value);\n    } //  \n\n    function add_money_dealer(uint256 value)\n        public\n        payable\n        only_dealer\n    //check_balance(dealer.cashAmmount + value)\n    {\n        dealer.cashAmmount += value;\n        token.transferFrom(dealer.name, address(this), value);\n        emit Deposit(msg.sender, value);\n\n        require(\n            (player.cashAmmount) == dealer.cashAmmount,\n            \"Rates must be the same.\"\n        );\n    } //  \n\n    function giveToPlayer(uint256 card1, uint256 card2) private {\n        player.cards.push(deck[card1]);\n        player.sumPlayer += deck[card1].rate;\n        deck[card1] = deck[ammountOfCards - 1];\n        delete deck[ammountOfCards - 1];\n        ammountOfCards--;\n\n        player.cards.push(deck[card2]);\n        player.sumPlayer += deck[card2].rate;\n        deck[card2] = deck[ammountOfCards - 1];\n        delete deck[ammountOfCards - 1];\n        ammountOfCards--;\n    }\n\n    function giveToPlayer(uint256 card) private {\n        Card[] storage card1 = deck;\n        player.cards.push(card1[card]);\n        player.sumPlayer += deck[card].rate;\n        deck[card] = deck[ammountOfCards - 1];\n        delete deck[ammountOfCards - 1];\n        ammountOfCards--;\n    }\n\n    function giveCards() public only_dealer {\n        require(!player.hasCards, \"The player already has cards.\");\n        require(deck.length != 0, \"No more cards in the deck!\");\n\n        // \n        uint256 card = rand();\n        dealer.cards.push(deck[card]);\n        dealer.sumDealer += deck[card].rate;\n        deck[card] = deck[ammountOfCards - 1];\n        delete deck[ammountOfCards - 1];\n        ammountOfCards--;\n\n        uint256 card1 = rand();\n        uint256 card2 = rand();\n\n        giveToPlayer(card1, card2);\n\n        player.hasCards = true;\n        emit Compare(\n            dealer.name,\n            dealer.sumDealer,\n            player.name,\n            player.sumPlayer\n        );\n    } // \n\n    function hit_dealer() public only_dealer points_dealer {\n        uint256 cardDealer = rand();\n        dealer.cards.push(deck[cardDealer]);\n        dealer.sumDealer += deck[cardDealer].rate;\n        deck[cardDealer] = deck[ammountOfCards - 1];\n        delete deck[ammountOfCards - 1];\n        ammountOfCards--;\n        emit Get_Cards(dealer.name, dealer.sumDealer);\n    } //   \n\n    function hit_player() public only_player points_player {\n        uint256 cardPlayer = rand();\n        giveToPlayer(cardPlayer);\n        emit Get_Cards(player.name, player.sumPlayer);\n    }\n\n    function stand() public {\n        if (msg.sender == dealer.name) {\n            standD = true;\n            token.approve(player.name, dealer.cashAmmount);\n        } else {\n            standP = true;\n            token.approve(dealer.name, player.cashAmmount);\n        }\n    } //   \n\n    function check_cards() public {\n        require(\n            player.hasCards,\n            \"Player doesn't have cards\" //    \n        );\n        player.sumPlayer = 0;\n        dealer.sumDealer = 0;\n        for (uint32 i = 0; i < player.cards.length; i++) {\n            player.sumPlayer += player.cards[i].rate;\n        }\n        for (uint32 i = 0; i < dealer.cards.length; i++) {\n            dealer.sumDealer += dealer.cards[i].rate;\n        }\n    } //   \n\n    function checkWinner() public {\n        require(\n            (player.cashAmmount) == dealer.cashAmmount,\n            \"Rates must be the same.\"\n        );\n        require(standP == true && standD == true, \"Not all made 'stand\");\n        if (\n            (player.sumPlayer > dealer.sumDealer) &&\n            (player.sumPlayer <= 21) &&\n            (dealer.sumDealer <= 21)\n        ) {\n            token.transfer(\n                player.name,\n                dealer.cashAmmount + player.cashAmmount\n            );\n            winner = player.name;\n        } else if (player.sumPlayer == dealer.sumDealer) {\n            token.transfer(player.name, dealer.cashAmmount);\n            token.transfer(dealer.name, player.cashAmmount);\n        } else {\n            token.transfer(\n                dealer.name,\n                player.cashAmmount + dealer.cashAmmount\n            );\n            winner = dealer.name;\n        }\n        emit Compare(\n            dealer.name,\n            dealer.sumDealer,\n            player.name,\n            player.sumPlayer\n        );\n    }\n\n    function check() public view returns (address) {\n        return winner;\n    }\n\n    function fillDeck() private {\n        ammountOfCards = Cards;\n        //  52 ,  \n        for (uint8 i = 0; i < 4; i++) {\n            //   2  10\n            for (uint8 j = 2; j <= 10; j++) {\n                deck.push(Card({name: uint2str(j), rate: j}));\n            }\n            deck.push(\n                Card({\n                    name: \"Jack\", //\n                    rate: 10\n                })\n            );\n            deck.push(\n                Card({\n                    name: \"Lady\", //\n                    rate: 10\n                })\n            );\n            deck.push(\n                Card({\n                    name: \"King\", //\n                    rate: 10\n                })\n            );\n            deck.push(\n                Card({\n                    name: \"Ace\", //\n                    rate: 11\n                })\n            );\n        }\n    }\n\n    constructor(FishkaToken _token) public {\n        token = _token;\n        dealer.cashAmmount = 0;\n        player.cashAmmount = 0;\n        dealer.sumDealer = 0;\n        player.sumPlayer = 0;\n        fillDeck();\n    }\n\n    // \n    //\n    uint256 randNonce = 0;\n\n    function rand() internal returns (uint256) {\n        randNonce++;\n        return\n            uint256(keccak256(abi.encodePacked(msg.sender, randNonce))) %\n            ammountOfCards;\n    }\n\n    function uint2str(uint8 _i)\n        internal\n        pure\n        returns (string memory _uintAsString)\n    {\n        if (_i == 0) {\n            return \"0\";\n        }\n        uint256 j = _i;\n        uint256 len = 0;\n        while (j != 0) {\n            len++;\n            j /= 10;\n        }\n        bytes memory bstr = new bytes(len);\n        uint256 k = len;\n        while (true) {\n            k = k - 1;\n            uint8 temp = (48 + uint8(_i - (_i / 10) * 10));\n            bytes1 b1 = bytes1(temp);\n            bstr[k] = b1;\n            _i /= 10;\n            if (_i != 0) {\n                continue;\n            } else break;\n        }\n        return string(bstr);\n    }\n}\n",
  "sourcePath": "/Users/mikhail/Downloads/Token_lab_3-main/contracts/BlackJack.sol",
  "compiler": {
    "name": "solc",
    "version": "0.5.16+commit.9c3226ce.Emscripten.clang"
  },
  "schemaVersion": "3.0.22",
  "updatedAt": "2021-05-14T14:53:56.602Z",
  "devdoc": {
    "methods": {}
  },
  "userdoc": {
    "methods": {}
  }
}