{
  "contractName": "BlackJack",
  "abi": [
    {
      "inputs": [
        {
          "internalType": "contract TokenERC20",
          "name": "_token",
          "type": "address"
        }
      ],
      "payable": false,
      "stateMutability": "nonpayable",
      "type": "constructor"
    },
    {
      "anonymous": false,
      "inputs": [
        {
          "indexed": false,
          "internalType": "address",
          "name": "d",
          "type": "address"
        },
        {
          "indexed": false,
          "internalType": "uint256",
          "name": "sumd",
          "type": "uint256"
        },
        {
          "indexed": false,
          "internalType": "address",
          "name": "p",
          "type": "address"
        },
        {
          "indexed": false,
          "internalType": "uint256",
          "name": "sump",
          "type": "uint256"
        }
      ],
      "name": "Compare",
      "type": "event"
    },
    {
      "anonymous": false,
      "inputs": [
        {
          "indexed": false,
          "internalType": "address",
          "name": "_from",
          "type": "address"
        },
        {
          "indexed": false,
          "internalType": "uint256",
          "name": "_value",
          "type": "uint256"
        }
      ],
      "name": "Deposit",
      "type": "event"
    },
    {
      "anonymous": false,
      "inputs": [
        {
          "indexed": false,
          "internalType": "address",
          "name": "_from",
          "type": "address"
        },
        {
          "indexed": false,
          "internalType": "uint256",
          "name": "sum",
          "type": "uint256"
        }
      ],
      "name": "Get_Cards",
      "type": "event"
    },
    {
      "constant": true,
      "inputs": [
        {
          "internalType": "uint256",
          "name": "",
          "type": "uint256"
        }
      ],
      "name": "deck",
      "outputs": [
        {
          "internalType": "string",
          "name": "name",
          "type": "string"
        },
        {
          "internalType": "uint8",
          "name": "rate",
          "type": "uint8"
        }
      ],
      "payable": false,
      "stateMutability": "view",
      "type": "function"
    },
    {
      "constant": true,
      "inputs": [],
      "name": "standD",
      "outputs": [
        {
          "internalType": "bool",
          "name": "",
          "type": "bool"
        }
      ],
      "payable": false,
      "stateMutability": "view",
      "type": "function"
    },
    {
      "constant": true,
      "inputs": [],
      "name": "standP",
      "outputs": [
        {
          "internalType": "bool",
          "name": "",
          "type": "bool"
        }
      ],
      "payable": false,
      "stateMutability": "view",
      "type": "function"
    },
    {
      "constant": false,
      "inputs": [],
      "name": "choose_dealer",
      "outputs": [],
      "payable": true,
      "stateMutability": "payable",
      "type": "function"
    },
    {
      "constant": false,
      "inputs": [],
      "name": "choose_player",
      "outputs": [],
      "payable": true,
      "stateMutability": "payable",
      "type": "function"
    },
    {
      "constant": false,
      "inputs": [],
      "name": "add_money_player",
      "outputs": [],
      "payable": true,
      "stateMutability": "payable",
      "type": "function"
    },
    {
      "constant": false,
      "inputs": [],
      "name": "add_money_dealer",
      "outputs": [],
      "payable": true,
      "stateMutability": "payable",
      "type": "function"
    },
    {
      "constant": false,
      "inputs": [],
      "name": "giveCards",
      "outputs": [],
      "payable": false,
      "stateMutability": "nonpayable",
      "type": "function"
    },
    {
      "constant": false,
      "inputs": [],
      "name": "hit_dealer",
      "outputs": [],
      "payable": false,
      "stateMutability": "nonpayable",
      "type": "function"
    },
    {
      "constant": false,
      "inputs": [],
      "name": "hit_player",
      "outputs": [],
      "payable": false,
      "stateMutability": "nonpayable",
      "type": "function"
    },
    {
      "constant": false,
      "inputs": [],
      "name": "stand",
      "outputs": [],
      "payable": false,
      "stateMutability": "nonpayable",
      "type": "function"
    },
    {
      "constant": false,
      "inputs": [],
      "name": "check_cards",
      "outputs": [],
      "payable": false,
      "stateMutability": "nonpayable",
      "type": "function"
    },
    {
      "constant": false,
      "inputs": [],
      "name": "checkWinner",
      "outputs": [],
      "payable": false,
      "stateMutability": "nonpayable",
      "type": "function"
    },
    {
      "constant": true,
      "inputs": [],
      "name": "check",
      "outputs": [
        {
          "internalType": "address",
          "name": "",
          "type": "address"
        }
      ],
      "payable": false,
      "stateMutability": "view",
      "type": "function"
    }
  ],
  "bytecode": "0x60806040526000600b553480156200001657600080fd5b5060405162002ebc38038062002ebc833981810160405260208110156200003c57600080fd5b81019080805190602001909291905050506000600560010181905550600060018001819055506000600560020160006101000a81548163ffffffff021916908363ffffffff1602179055506000600160020160016101000a81548163ffffffff021916908363ffffffff160217905550806000806101000a81548173ffffffffffffffffffffffffffffffffffffffff021916908373ffffffffffffffffffffffffffffffffffffffff160217905550620000fc6200010360201b60201c565b506200070b565b6034600a60166101000a81548163ffffffff021916908363ffffffff16021790555060008090505b60048160ff161015620004f8576000600290505b600a8160ff1611620001f157600960405180604001604052806200016984620004fb60201b60201c565b81526020018360ff16815250908060018154018082558091505090600182039060005260206000209060020201600090919290919091506000820151816000019080519060200190620001be9291906200065c565b5060208201518160010160006101000a81548160ff021916908360ff16021790555050505080806001019150506200013f565b50600960405180604001604052806040518060400160405280600481526020017f4a61636b000000000000000000000000000000000000000000000000000000008152508152602001600a60ff168152509080600181540180825580915050906001820390600052602060002090600202016000909192909190915060008201518160000190805190602001906200028b9291906200065c565b5060208201518160010160006101000a81548160ff021916908360ff160217905550505050600960405180604001604052806040518060400160405280600481526020017f4c616479000000000000000000000000000000000000000000000000000000008152508152602001600a60ff16815250908060018154018082558091505090600182039060005260206000209060020201600090919290919091506000820151816000019080519060200190620003499291906200065c565b5060208201518160010160006101000a81548160ff021916908360ff160217905550505050600960405180604001604052806040518060400160405280600481526020017f4b696e67000000000000000000000000000000000000000000000000000000008152508152602001600a60ff16815250908060018154018082558091505090600182039060005260206000209060020201600090919290919091506000820151816000019080519060200190620004079291906200065c565b5060208201518160010160006101000a81548160ff021916908360ff160217905550505050600960405180604001604052806040518060400160405280600381526020017f41636500000000000000000000000000000000000000000000000000000000008152508152602001600b60ff16815250908060018154018082558091505090600182039060005260206000209060020201600090919290919091506000820151816000019080519060200190620004c59291906200065c565b5060208201518160010160006101000a81548160ff021916908360ff16021790555050505080806001019150506200012b565b50565b606060008260ff16141562000548576040518060400160405280600181526020017f3000000000000000000000000000000000000000000000000000000000000000815250905062000657565b60008260ff16905060008090505b600082146200057b578080600101915050600a82816200057257fe5b04915062000556565b6060816040519080825280601f01601f191660200182016040528015620005b15781602001600182028038833980820191505090505b50905060008290505b6001156200064f576001810390506000600a808860ff1681620005d957fe5b04028703603001905060008160f81b905080848481518110620005f857fe5b60200101907effffffffffffffffffffffffffffffffffffffffffffffffffffffffffffff1916908160001a905350600a8860ff16816200063557fe5b04975060008860ff16146200064c575050620005ba565b50505b819450505050505b919050565b828054600181600116156101000203166002900490600052602060002090601f016020900481019282601f106200069f57805160ff1916838001178555620006d0565b82800160010185558215620006d0579182015b82811115620006cf578251825591602001919060010190620006b2565b5b509050620006df9190620006e3565b5090565b6200070891905b8082111562000704576000816000905550600101620006ea565b5090565b90565b6127a1806200071b6000396000f3fe6080604052600436106100dd5760003560e01c8063ad38867e1161007f578063d0fc60bd11610059578063d0fc60bd146102bb578063e3107de9146102d2578063f1924820146102e9578063f8ba0c6814610300576100dd565b8063ad38867e14610283578063b3f048251461029a578063c2897b10146102a4576100dd565b80637310c2ef116100bb5780637310c2ef146101e95780638f801d8614610218578063919840ad14610222578063ab73821314610279576100dd565b80633f7063a2146100e257806365b1dafa1461011157806365c5d425146101d2575b600080fd5b3480156100ee57600080fd5b506100f761030a565b604051808215151515815260200191505060405180910390f35b34801561011d57600080fd5b5061014a6004803603602081101561013457600080fd5b810190808035906020019092919050505061031d565b60405180806020018360ff1660ff168152602001828103825284818151815260200191508051906020019080838360005b8381101561019657808201518184015260208101905061017b565b50505050905090810190601f1680156101c35780820380516001836020036101000a031916815260200191505b50935050505060405180910390f35b3480156101de57600080fd5b506101e76103f3565b005b3480156101f557600080fd5b506101fe6105f8565b604051808215151515815260200191505060405180910390f35b61022061060b565b005b34801561022e57600080fd5b50610237610750565b604051808273ffffffffffffffffffffffffffffffffffffffff1673ffffffffffffffffffffffffffffffffffffffff16815260200191505060405180910390f35b61028161077a565b005b34801561028f57600080fd5b5061029861093e565b005b6102a2610efc565b005b3480156102b057600080fd5b506102b961109d565b005b3480156102c757600080fd5b506102d0611134565b005b3480156102de57600080fd5b506102e761159c565b005b3480156102f557600080fd5b506102fe6117bf565b005b610308611d4c565b005b600a60159054906101000a900460ff1681565b6009818154811061032a57fe5b9060005260206000209060020201600091509050806000018054600181600116156101000203166002900480601f0160208091040260200160405190810160405280929190818152602001828054600181600116156101000203166002900480156103d65780601f106103ab576101008083540402835291602001916103d6565b820191906000526020600020905b8154815290600101906020018083116103b957829003601f168201915b5050505050908060010160009054906101000a900460ff16905082565b600160020160009054906101000a900460ff16610478576040517f08c379a00000000000000000000000000000000000000000000000000000000081526004018080602001828103825260198152602001807f506c6179657220646f65736e277420686176652063617264730000000000000081525060200191505060405180910390fd5b6000600160020160016101000a81548163ffffffff021916908363ffffffff1602179055506000600560020160006101000a81548163ffffffff021916908363ffffffff16021790555060008090505b6001600301805490508163ffffffff16101561055b5760016003018163ffffffff16815481106104f457fe5b906000526020600020906002020160010160009054906101000a900460ff1660ff16600160020160018282829054906101000a900463ffffffff160192506101000a81548163ffffffff021916908363ffffffff16021790555080806001019150506104c8565b5060008090505b6005600301805490508163ffffffff1610156105f55760056003018163ffffffff168154811061058e57fe5b906000526020600020906002020160010160009054906101000a900460ff1660ff16600560020160008282829054906101000a900463ffffffff160192506101000a81548163ffffffff021916908363ffffffff1602179055508080600101915050610562565b50565b600a60149054906101000a900460ff1681565b600160000160009054906101000a900473ffffffffffffffffffffffffffffffffffffffff1673ffffffffffffffffffffffffffffffffffffffff163373ffffffffffffffffffffffffffffffffffffffff16146106d1576040517f08c379a000000000000000000000000000000000000000000000000000000000815260040180806020018281038252601a8152602001807f4f6e6c7920706c617965722063616e2063616c6c20746869732e00000000000081525060200191505060405180910390fd5b3460018001600082825401925050819055507fe1fffcc4923d04b559f4d29a8bfc6cda04eb5b0d3c460751c2402c5c5cc9109c3334604051808373ffffffffffffffffffffffffffffffffffffffff1673ffffffffffffffffffffffffffffffffffffffff1681526020018281526020019250505060405180910390a1565b6000600a60009054906101000a900473ffffffffffffffffffffffffffffffffffffffff16905090565b600560000160009054906101000a900473ffffffffffffffffffffffffffffffffffffffff1673ffffffffffffffffffffffffffffffffffffffff163373ffffffffffffffffffffffffffffffffffffffff1614610840576040517f08c379a000000000000000000000000000000000000000000000000000000000815260040180806020018281038252601a8152602001807f4f6e6c79206465616c65722063616e2063616c6c20746869732e00000000000081525060200191505060405180910390fd5b346005600101600082825401925050819055507fe1fffcc4923d04b559f4d29a8bfc6cda04eb5b0d3c460751c2402c5c5cc9109c3334604051808373ffffffffffffffffffffffffffffffffffffffff1673ffffffffffffffffffffffffffffffffffffffff1681526020018281526020019250505060405180910390a160056001015460018001541461093c576040517f08c379a00000000000000000000000000000000000000000000000000000000081526004018080602001828103825260178152602001807f5261746573206d757374206265207468652073616d652e00000000000000000081525060200191505060405180910390fd5b565b6005600101546001800154146109bc576040517f08c379a00000000000000000000000000000000000000000000000000000000081526004018080602001828103825260178152602001807f5261746573206d757374206265207468652073616d652e00000000000000000081525060200191505060405180910390fd5b60011515600a60149054906101000a900460ff1615151480156109f2575060011515600a60159054906101000a900460ff161515145b610a64576040517f08c379a00000000000000000000000000000000000000000000000000000000081526004018080602001828103825260138152602001807f4e6f7420616c6c206d61646520277374616e640000000000000000000000000081525060200191505060405180910390fd5b600560020160009054906101000a900463ffffffff1663ffffffff16600160020160019054906101000a900463ffffffff1663ffffffff16118015610ac557506015600160020160019054906101000a900463ffffffff1663ffffffff1611155b15610bac57600160000160009054906101000a900473ffffffffffffffffffffffffffffffffffffffff1673ffffffffffffffffffffffffffffffffffffffff166108fc6001800154600560010154019081150290604051600060405180830381858888f19350505050158015610b40573d6000803e3d6000fd5b50600160000160009054906101000a900473ffffffffffffffffffffffffffffffffffffffff16600a60006101000a81548173ffffffffffffffffffffffffffffffffffffffff021916908373ffffffffffffffffffffffffffffffffffffffff160217905550610dd3565b600560020160009054906101000a900463ffffffff1663ffffffff16600160020160019054906101000a900463ffffffff1663ffffffff161415610cd057600560000160009054906101000a900473ffffffffffffffffffffffffffffffffffffffff1673ffffffffffffffffffffffffffffffffffffffff166108fc6005600101549081150290604051600060405180830381858888f19350505050158015610c5a573d6000803e3d6000fd5b50600160000160009054906101000a900473ffffffffffffffffffffffffffffffffffffffff1673ffffffffffffffffffffffffffffffffffffffff166108fc60018001549081150290604051600060405180830381858888f19350505050158015610cca573d6000803e3d6000fd5b50610dd2565b6015600560020160009054906101000a900463ffffffff1663ffffffff1611610dd157600560000160009054906101000a900473ffffffffffffffffffffffffffffffffffffffff1673ffffffffffffffffffffffffffffffffffffffff166108fc6001800154600560010154019081150290604051600060405180830381858888f19350505050158015610d69573d6000803e3d6000fd5b50600560000160009054906101000a900473ffffffffffffffffffffffffffffffffffffffff16600a60006101000a81548173ffffffffffffffffffffffffffffffffffffffff021916908373ffffffffffffffffffffffffffffffffffffffff1602179055505b5b5b7f801142d4815df6228c2504370343b430ea366897420d133fe209e047747106ba600560000160009054906101000a900473ffffffffffffffffffffffffffffffffffffffff16600560020160009054906101000a900463ffffffff16600160000160009054906101000a900473ffffffffffffffffffffffffffffffffffffffff16600160020160019054906101000a900463ffffffff16604051808573ffffffffffffffffffffffffffffffffffffffff1673ffffffffffffffffffffffffffffffffffffffff1681526020018463ffffffff1681526020018373ffffffffffffffffffffffffffffffffffffffff1673ffffffffffffffffffffffffffffffffffffffff1681526020018263ffffffff16815260200194505050505060405180910390a1565b3460018001819055506000809054906101000a900473ffffffffffffffffffffffffffffffffffffffff1673ffffffffffffffffffffffffffffffffffffffff1663a9059cbb600160000160009054906101000a900473ffffffffffffffffffffffffffffffffffffffff1660016040518363ffffffff1660e01b8152600401808373ffffffffffffffffffffffffffffffffffffffff1673ffffffffffffffffffffffffffffffffffffffff16815260200182815260200192505050600060405180830381600087803b158015610fd357600080fd5b505af1158015610fe7573d6000803e3d6000fd5b5050505033600160000160006101000a81548173ffffffffffffffffffffffffffffffffffffffff021916908373ffffffffffffffffffffffffffffffffffffffff1602179055507fe1fffcc4923d04b559f4d29a8bfc6cda04eb5b0d3c460751c2402c5c5cc9109c336001604051808373ffffffffffffffffffffffffffffffffffffffff1673ffffffffffffffffffffffffffffffffffffffff1681526020018281526020019250505060405180910390a1565b600560000160009054906101000a900473ffffffffffffffffffffffffffffffffffffffff1673ffffffffffffffffffffffffffffffffffffffff163373ffffffffffffffffffffffffffffffffffffffff161415611116576001600a60156101000a81548160ff021916908315150217905550611132565b6001600a60146101000a81548160ff0219169083151502179055505b565b600560000160009054906101000a900473ffffffffffffffffffffffffffffffffffffffff1673ffffffffffffffffffffffffffffffffffffffff163373ffffffffffffffffffffffffffffffffffffffff16146111fa576040517f08c379a000000000000000000000000000000000000000000000000000000000815260040180806020018281038252601a8152602001807f4f6e6c79206465616c65722063616e2063616c6c20746869732e00000000000081525060200191505060405180910390fd5b6112026103f3565b6011600560020160009054906101000a900463ffffffff1663ffffffff161115611294576040517f08c379a00000000000000000000000000000000000000000000000000000000081526004018080602001828103825260148152602001807f546f74616c20706f696e7473206f76657220313700000000000000000000000081525060200191505060405180910390fd5b600061129e611ee4565b90506005600301600982815481106112b257fe5b90600052602060002090600202019080600181540180825580915050906001820390600052602060002090600202016000909192909190915060008201816000019080546001816001161561010002031660029004611312929190612678565b506001820160009054906101000a900460ff168160010160006101000a81548160ff021916908360ff1602179055505050506009818154811061135157fe5b906000526020600020906002020160010160009054906101000a900460ff1660ff16600560020160008282829054906101000a900463ffffffff160192506101000a81548163ffffffff021916908363ffffffff16021790555060096001600a60169054906101000a900463ffffffff160363ffffffff16815481106113d357fe5b9060005260206000209060020201600982815481106113ee57fe5b906000526020600020906002020160008201816000019080546001816001161561010002031660029004611423929190612678565b506001820160009054906101000a900460ff168160010160006101000a81548160ff021916908360ff16021790555090505060096001600a60169054906101000a900463ffffffff160363ffffffff168154811061147d57fe5b90600052602060002090600202016000808201600061149c91906126ff565b6001820160006101000a81549060ff02191690555050600a601681819054906101000a900463ffffffff16809291906001900391906101000a81548163ffffffff021916908363ffffffff160217905550507fb79970cf7e85476cae318f2f10e3b68525cf8e5b3a153f12a89ecb2f2edf9a01600560000160009054906101000a900473ffffffffffffffffffffffffffffffffffffffff16600560020160009054906101000a900463ffffffff16604051808373ffffffffffffffffffffffffffffffffffffffff1673ffffffffffffffffffffffffffffffffffffffff1681526020018263ffffffff1681526020019250505060405180910390a150565b600160000160009054906101000a900473ffffffffffffffffffffffffffffffffffffffff1673ffffffffffffffffffffffffffffffffffffffff163373ffffffffffffffffffffffffffffffffffffffff1614611662576040517f08c379a000000000000000000000000000000000000000000000000000000000815260040180806020018281038252601a8152602001807f4f6e6c7920706c617965722063616e2063616c6c20746869732e00000000000081525060200191505060405180910390fd5b61166a6103f3565b6015600160020160019054906101000a900463ffffffff1663ffffffff1611156116fc576040517f08c379a00000000000000000000000000000000000000000000000000000000081526004018080602001828103825260208152602001807f596f75277665206c6f73742e546f74616c20706f696e7473206f76657220323181525060200191505060405180910390fd5b6000611706611ee4565b905061171181611f81565b7fb79970cf7e85476cae318f2f10e3b68525cf8e5b3a153f12a89ecb2f2edf9a01600160000160009054906101000a900473ffffffffffffffffffffffffffffffffffffffff16600160020160019054906101000a900463ffffffff16604051808373ffffffffffffffffffffffffffffffffffffffff1673ffffffffffffffffffffffffffffffffffffffff1681526020018263ffffffff1681526020019250505060405180910390a150565b600560000160009054906101000a900473ffffffffffffffffffffffffffffffffffffffff1673ffffffffffffffffffffffffffffffffffffffff163373ffffffffffffffffffffffffffffffffffffffff1614611885576040517f08c379a000000000000000000000000000000000000000000000000000000000815260040180806020018281038252601a8152602001807f4f6e6c79206465616c65722063616e2063616c6c20746869732e00000000000081525060200191505060405180910390fd5b600160020160009054906101000a900460ff161561190b576040517f08c379a000000000000000000000000000000000000000000000000000000000815260040180806020018281038252601d8152602001807f54686520706c6179657220616c7265616479206861732063617264732e00000081525060200191505060405180910390fd5b60006009805490501415611987576040517f08c379a000000000000000000000000000000000000000000000000000000000815260040180806020018281038252601a8152602001807f4e6f206d6f726520636172647320696e20746865206465636b2100000000000081525060200191505060405180910390fd5b6000611991611ee4565b90506005600301600982815481106119a557fe5b90600052602060002090600202019080600181540180825580915050906001820390600052602060002090600202016000909192909190915060008201816000019080546001816001161561010002031660029004611a05929190612678565b506001820160009054906101000a900460ff168160010160006101000a81548160ff021916908360ff16021790555050505060098181548110611a4457fe5b906000526020600020906002020160010160009054906101000a900460ff1660ff16600560020160008282829054906101000a900463ffffffff160192506101000a81548163ffffffff021916908363ffffffff16021790555060096001600a60169054906101000a900463ffffffff160363ffffffff1681548110611ac657fe5b906000526020600020906002020160098281548110611ae157fe5b906000526020600020906002020160008201816000019080546001816001161561010002031660029004611b16929190612678565b506001820160009054906101000a900460ff168160010160006101000a81548160ff021916908360ff16021790555090505060096001600a60169054906101000a900463ffffffff160363ffffffff1681548110611b7057fe5b906000526020600020906002020160008082016000611b8f91906126ff565b6001820160006101000a81549060ff02191690555050600a601681819054906101000a900463ffffffff16809291906001900391906101000a81548163ffffffff021916908363ffffffff160217905550506000611beb611ee4565b90506000611bf7611ee4565b9050611c0382826121d8565b60018060020160006101000a81548160ff0219169083151502179055507f801142d4815df6228c2504370343b430ea366897420d133fe209e047747106ba600560000160009054906101000a900473ffffffffffffffffffffffffffffffffffffffff16600560020160009054906101000a900463ffffffff16600160000160009054906101000a900473ffffffffffffffffffffffffffffffffffffffff16600160020160019054906101000a900463ffffffff16604051808573ffffffffffffffffffffffffffffffffffffffff1673ffffffffffffffffffffffffffffffffffffffff1681526020018463ffffffff1681526020018373ffffffffffffffffffffffffffffffffffffffff1673ffffffffffffffffffffffffffffffffffffffff1681526020018263ffffffff16815260200194505050505060405180910390a1505050565b33600560000160006101000a81548173ffffffffffffffffffffffffffffffffffffffff021916908373ffffffffffffffffffffffffffffffffffffffff1602179055506000809054906101000a900473ffffffffffffffffffffffffffffffffffffffff1673ffffffffffffffffffffffffffffffffffffffff1663a9059cbb600560000160009054906101000a900473ffffffffffffffffffffffffffffffffffffffff1660016040518363ffffffff1660e01b8152600401808373ffffffffffffffffffffffffffffffffffffffff1673ffffffffffffffffffffffffffffffffffffffff16815260200182815260200192505050600060405180830381600087803b158015611e5e57600080fd5b505af1158015611e72573d6000803e3d6000fd5b505050507fe1fffcc4923d04b559f4d29a8bfc6cda04eb5b0d3c460751c2402c5c5cc9109c336001604051808373ffffffffffffffffffffffffffffffffffffffff1673ffffffffffffffffffffffffffffffffffffffff1681526020018281526020019250505060405180910390a1565b6000600b60008154809291906001019190505550600a60169054906101000a900463ffffffff1663ffffffff1633600b54604051602001808373ffffffffffffffffffffffffffffffffffffffff1673ffffffffffffffffffffffffffffffffffffffff1660601b8152601401828152602001925050506040516020818303038152906040528051906020012060001c81611f7b57fe5b06905090565b6000600990506001600301818381548110611f9857fe5b90600052602060002090600202019080600181540180825580915050906001820390600052602060002090600202016000909192909190915060008201816000019080546001816001161561010002031660029004611ff8929190612678565b506001820160009054906101000a900460ff168160010160006101000a81548160ff021916908360ff1602179055505050506009828154811061203757fe5b906000526020600020906002020160010160009054906101000a900460ff1660ff16600160020160018282829054906101000a900463ffffffff160192506101000a81548163ffffffff021916908363ffffffff16021790555060096001600a60169054906101000a900463ffffffff160363ffffffff16815481106120b957fe5b9060005260206000209060020201600983815481106120d457fe5b906000526020600020906002020160008201816000019080546001816001161561010002031660029004612109929190612678565b506001820160009054906101000a900460ff168160010160006101000a81548160ff021916908360ff16021790555090505060096001600a60169054906101000a900463ffffffff160363ffffffff168154811061216357fe5b90600052602060002090600202016000808201600061218291906126ff565b6001820160006101000a81549060ff02191690555050600a601681819054906101000a900463ffffffff16809291906001900391906101000a81548163ffffffff021916908363ffffffff160217905550505050565b6001600301600983815481106121ea57fe5b9060005260206000209060020201908060018154018082558091505090600182039060005260206000209060020201600090919290919091506000820181600001908054600181600116156101000203166002900461224a929190612678565b506001820160009054906101000a900460ff168160010160006101000a81548160ff021916908360ff1602179055505050506009828154811061228957fe5b906000526020600020906002020160010160009054906101000a900460ff1660ff16600160020160018282829054906101000a900463ffffffff160192506101000a81548163ffffffff021916908363ffffffff16021790555060096001600a60169054906101000a900463ffffffff160363ffffffff168154811061230b57fe5b90600052602060002090600202016009838154811061232657fe5b90600052602060002090600202016000820181600001908054600181600116156101000203166002900461235b929190612678565b506001820160009054906101000a900460ff168160010160006101000a81548160ff021916908360ff16021790555090505060096001600a60169054906101000a900463ffffffff160363ffffffff16815481106123b557fe5b9060005260206000209060020201600080820160006123d491906126ff565b6001820160006101000a81549060ff02191690555050600a601681819054906101000a900463ffffffff16809291906001900391906101000a81548163ffffffff021916908363ffffffff1602179055505060016003016009828154811061243857fe5b90600052602060002090600202019080600181540180825580915050906001820390600052602060002090600202016000909192909190915060008201816000019080546001816001161561010002031660029004612498929190612678565b506001820160009054906101000a900460ff168160010160006101000a81548160ff021916908360ff160217905550505050600981815481106124d757fe5b906000526020600020906002020160010160009054906101000a900460ff1660ff16600160020160018282829054906101000a900463ffffffff160192506101000a81548163ffffffff021916908363ffffffff16021790555060096001600a60169054906101000a900463ffffffff160363ffffffff168154811061255957fe5b90600052602060002090600202016009828154811061257457fe5b9060005260206000209060020201600082018160000190805460018160011615610100020316600290046125a9929190612678565b506001820160009054906101000a900460ff168160010160006101000a81548160ff021916908360ff16021790555090505060096001600a60169054906101000a900463ffffffff160363ffffffff168154811061260357fe5b90600052602060002090600202016000808201600061262291906126ff565b6001820160006101000a81549060ff02191690555050600a601681819054906101000a900463ffffffff16809291906001900391906101000a81548163ffffffff021916908363ffffffff160217905550505050565b828054600181600116156101000203166002900490600052602060002090601f016020900481019282601f106126b157805485556126ee565b828001600101855582156126ee57600052602060002091601f016020900482015b828111156126ed5782548255916001019190600101906126d2565b5b5090506126fb9190612747565b5090565b50805460018160011615610100020316600290046000825580601f106127255750612744565b601f0160209004906000526020600020908101906127439190612747565b5b50565b61276991905b8082111561276557600081600090555060010161274d565b5090565b9056fea265627a7a7231582048fa1ba243e0b7c088fe354b56fbce0bd3dca52d9a66bc27eb599865dcaf855164736f6c63430005100032",
  "source": "pragma solidity >=0.4.22 <0.7.0;\nimport \"./TokenERC20.sol\";\ncontract BlackJack {\n    TokenERC20 token;\n    struct Player {\n        address payable name; // \n        uint256 cashAmmount ; // \n        bool hasCards;\n        uint32 sumPlayer;\n        Card[] cards;\n    }\n    struct Card {\n        string name; // \n        uint8 rate; //  \n    }\n\n    struct Dealer {\n        address payable name; // \n        uint256 cashAmmount ; // \n        uint32 sumDealer; //  \n        Card[] cards;\n    }\n    Player player;\n    Dealer dealer;\n    Card[] public deck; // \n    address  winner;\n    bool public standP; //    \n    bool public standD; //    \n    \n    uint32 constant Cards=52;\n    uint32 ammountOfCards;\n\n    event Deposit(address  _from, uint256 _value);\n    event Get_Cards(address  _from,  uint256 sum);\n    event Compare(\n        address  d,\n        uint256 sumd,\n        address  p,\n        uint256 sump\n    );\n    modifier points_player() {\n        check_cards();\n        require(player.sumPlayer <= 21, \"You've lost.Total points over 21\");\n        _;\n    } //    \n\n    modifier points_dealer() {\n        check_cards();\n        require(dealer.sumDealer <= 17, \"Total points over 17\");\n        _;\n    } //    \n    modifier only_dealer() {\n        require(msg.sender == dealer.name, \"Only dealer can call this.\");\n        _;\n    }\n\n    modifier only_player() {\n        require(msg.sender == player.name, \"Only player can call this.\");\n        _;\n    }\n\n    function choose_dealer() public payable {\n        dealer.name = msg.sender;\n        token.transfer(dealer.name, 1);\n        emit Deposit(msg.sender, 1);\n    } //   \n\n    function choose_player() public payable \n    {\n        player.cashAmmount = msg.value;\n        token.transfer(player.name, 1);\n        player.name = msg.sender;\n        emit Deposit(msg.sender, 1);\n    } //   \n\n    function add_money_player()\n        public\n        payable\n        only_player\n    {\n        player.cashAmmount += msg.value;\n        emit Deposit(msg.sender, msg.value);\n    } //  \n\n    function add_money_dealer()\n        public\n        payable\n        only_dealer\n    {\n        dealer.cashAmmount += msg.value;\n        emit Deposit(msg.sender, msg.value);\n        require(\n            (player.cashAmmount) == dealer.cashAmmount,\n            \"Rates must be the same.\"\n        );\n    } //  \n \n     function giveToPlayer(uint256 card1,uint256 card2)private{\n        player.cards.push(deck[card1]);\n        player.sumPlayer += deck[card1].rate;\n        deck[card1] = deck[ammountOfCards - 1];\n        delete deck[ammountOfCards - 1];\n        ammountOfCards--;\n\n        player.cards.push(deck[card2]);\n        player.sumPlayer += deck[card2].rate;\n        deck[card2] = deck[ammountOfCards - 1];\n        delete deck[ammountOfCards - 1];\n        ammountOfCards--;\n    } \n      function giveToPlayer(uint256  card) private {\n        Card [] storage  card1=deck;\n        player.cards.push(card1[card]);\n        player.sumPlayer += deck[card].rate;\n        deck[card] = deck[ammountOfCards - 1];\n        delete deck[ammountOfCards - 1];\n        ammountOfCards--;\n        \n    }\n\n    function giveCards() public only_dealer {\n        require(!player.hasCards, \"The player already has cards.\");\n        require(deck.length != 0, \"No more cards in the deck!\");\n\n\n        // \n        uint256 card = rand();\n        dealer.cards.push(deck[card]);\n        dealer.sumDealer += deck[card].rate;\n        deck[card] = deck[ammountOfCards - 1];\n        delete deck[ammountOfCards - 1];\n        ammountOfCards--;\n\n        uint256 card1 = rand();\n        uint256 card2 = rand();\n        \n        giveToPlayer(card1,card2);\n\n        player.hasCards = true;\n        emit Compare(dealer.name,dealer.sumDealer, player.name, player.sumPlayer);\n    }// \n\n    function hit_dealer() \n    public\n    only_dealer\n    points_dealer\n     {\n            uint256 cardDealer = rand();\n            dealer.cards.push(deck[cardDealer]);\n            dealer.sumDealer += deck[cardDealer].rate;\n            deck[cardDealer] = deck[ammountOfCards - 1];\n            delete deck[ammountOfCards - 1];\n            ammountOfCards--;\n            emit Get_Cards(dealer.name,  dealer.sumDealer);\n    } //   \n    function hit_player() \n        public\n        only_player\n        points_player\n        {\n            uint256 cardPlayer = rand();\n            giveToPlayer(cardPlayer);\n            emit Get_Cards(player.name,  player.sumPlayer );\n        }\n    \n\n    function stand() public {\n        if (msg.sender == dealer.name) {\n            standD = true;\n        } else {\n            standP = true;\n        }\n    }//   \n\n    function check_cards() public {\n        require(\n            player.hasCards,\n            \"Player doesn't have cards\" //    \n        );\n        player.sumPlayer = 0;\n        dealer.sumDealer = 0;\n        for (uint32 i = 0; i < player.cards.length; i++) {\n            player.sumPlayer += player.cards[i].rate;\n        }\n        for (uint32 i = 0; i < dealer.cards.length; i++) {\n            dealer.sumDealer += dealer.cards[i].rate;\n        }\n    } //   \n\n    function checkWinner()  public {\n        require(\n            (player.cashAmmount) == dealer.cashAmmount,\n            \"Rates must be the same.\"\n        );\n        require(standP == true && standD == true, \"Not all made 'stand\");\n        if ((player.sumPlayer > dealer.sumDealer) && (player.sumPlayer <= 21)) {\n        player.name.transfer(dealer.cashAmmount + player.cashAmmount);\n        winner = player.name;\n        }else if (player.sumPlayer == dealer.sumDealer) {\n        dealer.name.transfer(dealer.cashAmmount);\n        player.name.transfer(player.cashAmmount);\n        } else if (dealer.sumDealer<= 21) {\n        dealer.name.transfer(dealer.cashAmmount + player.cashAmmount);\n        winner = dealer.name;\n        } \n        emit Compare(dealer.name, dealer.sumDealer,player.name, player.sumPlayer);\n    }\n\n    function check()public view returns(address){\n        return winner;\n    }\n    function fillDeck() private {\n        ammountOfCards = Cards;\n        //  52 ,  \n        for (uint8 i = 0; i < 4; i++) {\n            //   2  10\n            for (uint8 j = 2; j <= 10; j++) {\n                deck.push(Card({name: uint2str(j), rate: j}));\n            }\n            deck.push(\n                Card({\n                    name: \"Jack\", //\n                    rate: 10\n                })\n            );\n            deck.push(\n                Card({\n                    name: \"Lady\", //\n                    rate: 10\n                })\n            );\n            deck.push(\n                Card({\n                    name: \"King\", //\n                    rate: 10\n                })\n            );\n            deck.push(\n                Card({\n                    name: \"Ace\", //\n                    rate: 11\n                })\n            );\n        }\n    }\n\n    constructor(TokenERC20 _token) public {\n        dealer.cashAmmount=0;\n        player.cashAmmount=0;\n        dealer.sumDealer=0;\n        player.sumPlayer=0;\n        token = _token;\n        fillDeck();\n    }\n\n    // \n    // \n    uint256 randNonce = 0;\n\n\n    function rand() internal  returns (uint256) {\n        randNonce++;\n        return\n            uint256(keccak256(abi.encodePacked(msg.sender, randNonce))) %\n            ammountOfCards;\n    }\n\n    function uint2str(uint8 _i)\n        internal\n        pure\n        returns (string memory _uintAsString)\n    {\n        if (_i == 0) {\n            return \"0\";\n        }\n        uint256 j = _i;\n        uint256 len = 0;\n        while (j != 0) {\n            len++;\n            j /= 10;\n        }\n        bytes memory bstr = new bytes(len);\n        uint256 k = len;\n        while (true) {\n            k = k - 1;\n            uint8 temp = (48 + uint8(_i - (_i / 10) * 10));\n            bytes1 b1 = bytes1(temp);\n            bstr[k] = b1;\n            _i /= 10;\n            if (_i!=0){\n                 continue;\n            }else break;\n        }\n        return string(bstr);\n    }\n}",
  "sourcePath": "E:/blochain/Lab3/BlackJackContract/contracts/BlackJack.sol",
  "compiler": {
    "name": "solc",
    "version": "0.5.16+commit.9c3226ce.Emscripten.clang"
  },
  "schemaVersion": "3.3.4",
  "updatedAt": "2021-04-14T18:53:25.157Z",
  "networkType": "ethereum",
  "devdoc": {
    "methods": {}
  },
  "userdoc": {
    "methods": {}
  }
}