{
  "contractName": "BlackJack",
  "abi": [
    {
      "inputs": [
        {
          "internalType": "contract FishkaToken",
          "name": "_token",
          "type": "address"
        }
      ],
      "payable": false,
      "stateMutability": "nonpayable",
      "type": "constructor"
    },
    {
      "anonymous": false,
      "inputs": [
        {
          "indexed": false,
          "internalType": "address",
          "name": "d",
          "type": "address"
        },
        {
          "indexed": false,
          "internalType": "uint256",
          "name": "sumd",
          "type": "uint256"
        },
        {
          "indexed": false,
          "internalType": "address",
          "name": "p",
          "type": "address"
        },
        {
          "indexed": false,
          "internalType": "uint256",
          "name": "sump",
          "type": "uint256"
        }
      ],
      "name": "Compare",
      "type": "event"
    },
    {
      "anonymous": false,
      "inputs": [
        {
          "indexed": false,
          "internalType": "address",
          "name": "_from",
          "type": "address"
        },
        {
          "indexed": false,
          "internalType": "uint256",
          "name": "_value",
          "type": "uint256"
        }
      ],
      "name": "Deposit",
      "type": "event"
    },
    {
      "anonymous": false,
      "inputs": [
        {
          "indexed": false,
          "internalType": "address",
          "name": "_from",
          "type": "address"
        },
        {
          "indexed": false,
          "internalType": "uint256",
          "name": "sum",
          "type": "uint256"
        }
      ],
      "name": "Get_Cards",
      "type": "event"
    },
    {
      "constant": true,
      "inputs": [
        {
          "internalType": "uint256",
          "name": "",
          "type": "uint256"
        }
      ],
      "name": "deck",
      "outputs": [
        {
          "internalType": "string",
          "name": "name",
          "type": "string"
        },
        {
          "internalType": "uint8",
          "name": "rate",
          "type": "uint8"
        }
      ],
      "payable": false,
      "stateMutability": "view",
      "type": "function"
    },
    {
      "constant": true,
      "inputs": [],
      "name": "standD",
      "outputs": [
        {
          "internalType": "bool",
          "name": "",
          "type": "bool"
        }
      ],
      "payable": false,
      "stateMutability": "view",
      "type": "function"
    },
    {
      "constant": true,
      "inputs": [],
      "name": "standP",
      "outputs": [
        {
          "internalType": "bool",
          "name": "",
          "type": "bool"
        }
      ],
      "payable": false,
      "stateMutability": "view",
      "type": "function"
    },
    {
      "constant": false,
      "inputs": [
        {
          "internalType": "uint256",
          "name": "amount",
          "type": "uint256"
        }
      ],
      "name": "choose_dealer",
      "outputs": [],
      "payable": true,
      "stateMutability": "payable",
      "type": "function"
    },
    {
      "constant": false,
      "inputs": [
        {
          "internalType": "uint256",
          "name": "value",
          "type": "uint256"
        }
      ],
      "name": "choose_player",
      "outputs": [],
      "payable": true,
      "stateMutability": "payable",
      "type": "function"
    },
    {
      "constant": false,
      "inputs": [],
      "name": "add_money_player",
      "outputs": [],
      "payable": true,
      "stateMutability": "payable",
      "type": "function"
    },
    {
      "constant": false,
      "inputs": [],
      "name": "add_money_dealer",
      "outputs": [],
      "payable": true,
      "stateMutability": "payable",
      "type": "function"
    },
    {
      "constant": false,
      "inputs": [],
      "name": "giveCards",
      "outputs": [],
      "payable": false,
      "stateMutability": "nonpayable",
      "type": "function"
    },
    {
      "constant": false,
      "inputs": [],
      "name": "hit_dealer",
      "outputs": [],
      "payable": false,
      "stateMutability": "nonpayable",
      "type": "function"
    },
    {
      "constant": false,
      "inputs": [],
      "name": "hit_player",
      "outputs": [],
      "payable": false,
      "stateMutability": "nonpayable",
      "type": "function"
    },
    {
      "constant": false,
      "inputs": [],
      "name": "stand",
      "outputs": [],
      "payable": false,
      "stateMutability": "nonpayable",
      "type": "function"
    },
    {
      "constant": false,
      "inputs": [],
      "name": "check_cards",
      "outputs": [],
      "payable": false,
      "stateMutability": "nonpayable",
      "type": "function"
    },
    {
      "constant": false,
      "inputs": [],
      "name": "checkWinner",
      "outputs": [],
      "payable": false,
      "stateMutability": "nonpayable",
      "type": "function"
    },
    {
      "constant": true,
      "inputs": [],
      "name": "check",
      "outputs": [
        {
          "internalType": "address",
          "name": "",
          "type": "address"
        }
      ],
      "payable": false,
      "stateMutability": "view",
      "type": "function"
    }
  ],
  "bytecode": "0x60806040526000600b553480156200001657600080fd5b5060405162002d3338038062002d33833981810160405260208110156200003c57600080fd5b81019080805190602001909291905050506000600560010181905550600060018001819055506000600560020160006101000a81548163ffffffff021916908363ffffffff1602179055506000600160020160016101000a81548163ffffffff021916908363ffffffff160217905550620000bc620000c360201b60201c565b50620006cb565b6034600a60166101000a81548163ffffffff021916908363ffffffff16021790555060008090505b60048160ff161015620004b8576000600290505b600a8160ff1611620001b157600960405180604001604052806200012984620004bb60201b60201c565b81526020018360ff168152509080600181540180825580915050906001820390600052602060002090600202016000909192909190915060008201518160000190805190602001906200017e9291906200061c565b5060208201518160010160006101000a81548160ff021916908360ff1602179055505050508080600101915050620000ff565b50600960405180604001604052806040518060400160405280600481526020017f4a61636b000000000000000000000000000000000000000000000000000000008152508152602001600a60ff168152509080600181540180825580915050906001820390600052602060002090600202016000909192909190915060008201518160000190805190602001906200024b9291906200061c565b5060208201518160010160006101000a81548160ff021916908360ff160217905550505050600960405180604001604052806040518060400160405280600481526020017f4c616479000000000000000000000000000000000000000000000000000000008152508152602001600a60ff16815250908060018154018082558091505090600182039060005260206000209060020201600090919290919091506000820151816000019080519060200190620003099291906200061c565b5060208201518160010160006101000a81548160ff021916908360ff160217905550505050600960405180604001604052806040518060400160405280600481526020017f4b696e67000000000000000000000000000000000000000000000000000000008152508152602001600a60ff16815250908060018154018082558091505090600182039060005260206000209060020201600090919290919091506000820151816000019080519060200190620003c79291906200061c565b5060208201518160010160006101000a81548160ff021916908360ff160217905550505050600960405180604001604052806040518060400160405280600381526020017f41636500000000000000000000000000000000000000000000000000000000008152508152602001600b60ff16815250908060018154018082558091505090600182039060005260206000209060020201600090919290919091506000820151816000019080519060200190620004859291906200061c565b5060208201518160010160006101000a81548160ff021916908360ff1602179055505050508080600101915050620000eb565b50565b606060008260ff16141562000508576040518060400160405280600181526020017f3000000000000000000000000000000000000000000000000000000000000000815250905062000617565b60008260ff16905060008090505b600082146200053b578080600101915050600a82816200053257fe5b04915062000516565b6060816040519080825280601f01601f191660200182016040528015620005715781602001600182028038833980820191505090505b50905060008290505b6001156200060f576001810390506000600a808860ff16816200059957fe5b04028703603001905060008160f81b905080848481518110620005b857fe5b60200101907effffffffffffffffffffffffffffffffffffffffffffffffffffffffffffff1916908160001a905350600a8860ff1681620005f557fe5b04975060008860ff16146200060c5750506200057a565b50505b819450505050505b919050565b828054600181600116156101000203166002900490600052602060002090601f016020900481019282601f106200065f57805160ff191683800117855562000690565b8280016001018555821562000690579182015b828111156200068f57825182559160200191906001019062000672565b5b5090506200069f9190620006a3565b5090565b620006c891905b80821115620006c4576000816000905550600101620006aa565b5090565b90565b61265880620006db6000396000f3fe6080604052600436106100dd5760003560e01c8063919840ad1161007f578063c2897b1011610059578063c2897b10146102f6578063d0fc60bd1461030d578063e3107de914610324578063f19248201461033b576100dd565b8063919840ad1461027e578063ab738213146102d5578063ad38867e146102df576100dd565b806365c5d425116100bb57806365c5d425146102005780637310c2ef146102175780638831d5c4146102465780638f801d8614610274576100dd565b80633f7063a2146100e25780635a12c1721461011157806365b1dafa1461013f575b600080fd5b3480156100ee57600080fd5b506100f7610352565b604051808215151515815260200191505060405180910390f35b61013d6004803603602081101561012757600080fd5b8101908080359060200190929190505050610365565b005b34801561014b57600080fd5b506101786004803603602081101561016257600080fd5b81019080803590602001909291905050506103ac565b60405180806020018360ff1660ff168152602001828103825284818151815260200191508051906020019080838360005b838110156101c45780820151818401526020810190506101a9565b50505050905090810190601f1680156101f15780820380516001836020036101000a031916815260200191505b50935050505060405180910390f35b34801561020c57600080fd5b50610215610482565b005b34801561022357600080fd5b5061022c610687565b604051808215151515815260200191505060405180910390f35b6102726004803603602081101561025c57600080fd5b810190808035906020019092919050505061069a565b005b61027c61081f565b005b34801561028a57600080fd5b50610293610964565b604051808273ffffffffffffffffffffffffffffffffffffffff1673ffffffffffffffffffffffffffffffffffffffff16815260200191505060405180910390f35b6102dd61098e565b005b3480156102eb57600080fd5b506102f4610b52565b005b34801561030257600080fd5b5061030b6110ec565b005b34801561031957600080fd5b50610322611183565b005b34801561033057600080fd5b506103396115eb565b005b34801561034757600080fd5b5061035061180e565b005b600a60159054906101000a900460ff1681565b33600560000160006101000a81548173ffffffffffffffffffffffffffffffffffffffff021916908373ffffffffffffffffffffffffffffffffffffffff16021790555050565b600981815481106103b957fe5b9060005260206000209060020201600091509050806000018054600181600116156101000203166002900480601f0160208091040260200160405190810160405280929190818152602001828054600181600116156101000203166002900480156104655780601f1061043a57610100808354040283529160200191610465565b820191906000526020600020905b81548152906001019060200180831161044857829003601f168201915b5050505050908060010160009054906101000a900460ff16905082565b600160020160009054906101000a900460ff16610507576040517f08c379a00000000000000000000000000000000000000000000000000000000081526004018080602001828103825260198152602001807f506c6179657220646f65736e277420686176652063617264730000000000000081525060200191505060405180910390fd5b6000600160020160016101000a81548163ffffffff021916908363ffffffff1602179055506000600560020160006101000a81548163ffffffff021916908363ffffffff16021790555060008090505b6001600301805490508163ffffffff1610156105ea5760016003018163ffffffff168154811061058357fe5b906000526020600020906002020160010160009054906101000a900460ff1660ff16600160020160018282829054906101000a900463ffffffff160192506101000a81548163ffffffff021916908363ffffffff1602179055508080600101915050610557565b5060008090505b6005600301805490508163ffffffff1610156106845760056003018163ffffffff168154811061061d57fe5b906000526020600020906002020160010160009054906101000a900460ff1660ff16600560020160008282829054906101000a900463ffffffff160192506101000a81548163ffffffff021916908363ffffffff16021790555080806001019150506105f1565b50565b600a60149054906101000a900460ff1681565b6000809054906101000a900473ffffffffffffffffffffffffffffffffffffffff1673ffffffffffffffffffffffffffffffffffffffff166323b872dd600560000160009054906101000a900473ffffffffffffffffffffffffffffffffffffffff163360026040518463ffffffff1660e01b8152600401808473ffffffffffffffffffffffffffffffffffffffff1673ffffffffffffffffffffffffffffffffffffffff1681526020018373ffffffffffffffffffffffffffffffffffffffff1673ffffffffffffffffffffffffffffffffffffffff1681526020018281526020019350505050602060405180830381600087803b15801561079c57600080fd5b505af11580156107b0573d6000803e3d6000fd5b505050506040513d60208110156107c657600080fd5b81019080805190602001909291905050505033600160000160006101000a81548173ffffffffffffffffffffffffffffffffffffffff021916908373ffffffffffffffffffffffffffffffffffffffff16021790555050565b600160000160009054906101000a900473ffffffffffffffffffffffffffffffffffffffff1673ffffffffffffffffffffffffffffffffffffffff163373ffffffffffffffffffffffffffffffffffffffff16146108e5576040517f08c379a000000000000000000000000000000000000000000000000000000000815260040180806020018281038252601a8152602001807f4f6e6c7920706c617965722063616e2063616c6c20746869732e00000000000081525060200191505060405180910390fd5b3460018001600082825401925050819055507fe1fffcc4923d04b559f4d29a8bfc6cda04eb5b0d3c460751c2402c5c5cc9109c3334604051808373ffffffffffffffffffffffffffffffffffffffff1673ffffffffffffffffffffffffffffffffffffffff1681526020018281526020019250505060405180910390a1565b6000600a60009054906101000a900473ffffffffffffffffffffffffffffffffffffffff16905090565b600560000160009054906101000a900473ffffffffffffffffffffffffffffffffffffffff1673ffffffffffffffffffffffffffffffffffffffff163373ffffffffffffffffffffffffffffffffffffffff1614610a54576040517f08c379a000000000000000000000000000000000000000000000000000000000815260040180806020018281038252601a8152602001807f4f6e6c79206465616c65722063616e2063616c6c20746869732e00000000000081525060200191505060405180910390fd5b346005600101600082825401925050819055507fe1fffcc4923d04b559f4d29a8bfc6cda04eb5b0d3c460751c2402c5c5cc9109c3334604051808373ffffffffffffffffffffffffffffffffffffffff1673ffffffffffffffffffffffffffffffffffffffff1681526020018281526020019250505060405180910390a1600560010154600180015414610b50576040517f08c379a00000000000000000000000000000000000000000000000000000000081526004018080602001828103825260178152602001807f5261746573206d757374206265207468652073616d652e00000000000000000081525060200191505060405180910390fd5b565b600560010154600180015414610bd0576040517f08c379a00000000000000000000000000000000000000000000000000000000081526004018080602001828103825260178152602001807f5261746573206d757374206265207468652073616d652e00000000000000000081525060200191505060405180910390fd5b60011515600a60149054906101000a900460ff161515148015610c06575060011515600a60159054906101000a900460ff161515145b610c78576040517f08c379a00000000000000000000000000000000000000000000000000000000081526004018080602001828103825260138152602001807f4e6f7420616c6c206d61646520277374616e640000000000000000000000000081525060200191505060405180910390fd5b600560020160009054906101000a900463ffffffff1663ffffffff16600160020160019054906101000a900463ffffffff1663ffffffff16118015610cd957506015600160020160019054906101000a900463ffffffff1663ffffffff1611155b15610dc057600160000160009054906101000a900473ffffffffffffffffffffffffffffffffffffffff1673ffffffffffffffffffffffffffffffffffffffff166108fc6001800154600560010154019081150290604051600060405180830381858888f19350505050158015610d54573d6000803e3d6000fd5b50600160000160009054906101000a900473ffffffffffffffffffffffffffffffffffffffff16600a60006101000a81548173ffffffffffffffffffffffffffffffffffffffff021916908373ffffffffffffffffffffffffffffffffffffffff160217905550610fc3565b600560020160009054906101000a900463ffffffff1663ffffffff16600160020160019054906101000a900463ffffffff1663ffffffff161415610ee457600560000160009054906101000a900473ffffffffffffffffffffffffffffffffffffffff1673ffffffffffffffffffffffffffffffffffffffff166108fc6005600101549081150290604051600060405180830381858888f19350505050158015610e6e573d6000803e3d6000fd5b50600160000160009054906101000a900473ffffffffffffffffffffffffffffffffffffffff1673ffffffffffffffffffffffffffffffffffffffff166108fc60018001549081150290604051600060405180830381858888f19350505050158015610ede573d6000803e3d6000fd5b50610fc2565b600560000160009054906101000a900473ffffffffffffffffffffffffffffffffffffffff1673ffffffffffffffffffffffffffffffffffffffff166108fc6001800154600560010154019081150290604051600060405180830381858888f19350505050158015610f5a573d6000803e3d6000fd5b50600560000160009054906101000a900473ffffffffffffffffffffffffffffffffffffffff16600a60006101000a81548173ffffffffffffffffffffffffffffffffffffffff021916908373ffffffffffffffffffffffffffffffffffffffff1602179055505b5b7f801142d4815df6228c2504370343b430ea366897420d133fe209e047747106ba600560000160009054906101000a900473ffffffffffffffffffffffffffffffffffffffff16600560020160009054906101000a900463ffffffff16600160000160009054906101000a900473ffffffffffffffffffffffffffffffffffffffff16600160020160019054906101000a900463ffffffff16604051808573ffffffffffffffffffffffffffffffffffffffff1673ffffffffffffffffffffffffffffffffffffffff1681526020018463ffffffff1681526020018373ffffffffffffffffffffffffffffffffffffffff1673ffffffffffffffffffffffffffffffffffffffff1681526020018263ffffffff16815260200194505050505060405180910390a1565b600560000160009054906101000a900473ffffffffffffffffffffffffffffffffffffffff1673ffffffffffffffffffffffffffffffffffffffff163373ffffffffffffffffffffffffffffffffffffffff161415611165576001600a60156101000a81548160ff021916908315150217905550611181565b6001600a60146101000a81548160ff0219169083151502179055505b565b600560000160009054906101000a900473ffffffffffffffffffffffffffffffffffffffff1673ffffffffffffffffffffffffffffffffffffffff163373ffffffffffffffffffffffffffffffffffffffff1614611249576040517f08c379a000000000000000000000000000000000000000000000000000000000815260040180806020018281038252601a8152602001807f4f6e6c79206465616c65722063616e2063616c6c20746869732e00000000000081525060200191505060405180910390fd5b611251610482565b6011600560020160009054906101000a900463ffffffff1663ffffffff1611156112e3576040517f08c379a00000000000000000000000000000000000000000000000000000000081526004018080602001828103825260148152602001807f546f74616c20706f696e7473206f76657220313700000000000000000000000081525060200191505060405180910390fd5b60006112ed611d9b565b905060056003016009828154811061130157fe5b9060005260206000209060020201908060018154018082558091505090600182039060005260206000209060020201600090919290919091506000820181600001908054600181600116156101000203166002900461136192919061252f565b506001820160009054906101000a900460ff168160010160006101000a81548160ff021916908360ff160217905550505050600981815481106113a057fe5b906000526020600020906002020160010160009054906101000a900460ff1660ff16600560020160008282829054906101000a900463ffffffff160192506101000a81548163ffffffff021916908363ffffffff16021790555060096001600a60169054906101000a900463ffffffff160363ffffffff168154811061142257fe5b90600052602060002090600202016009828154811061143d57fe5b90600052602060002090600202016000820181600001908054600181600116156101000203166002900461147292919061252f565b506001820160009054906101000a900460ff168160010160006101000a81548160ff021916908360ff16021790555090505060096001600a60169054906101000a900463ffffffff160363ffffffff16815481106114cc57fe5b9060005260206000209060020201600080820160006114eb91906125b6565b6001820160006101000a81549060ff02191690555050600a601681819054906101000a900463ffffffff16809291906001900391906101000a81548163ffffffff021916908363ffffffff160217905550507fb79970cf7e85476cae318f2f10e3b68525cf8e5b3a153f12a89ecb2f2edf9a01600560000160009054906101000a900473ffffffffffffffffffffffffffffffffffffffff16600560020160009054906101000a900463ffffffff16604051808373ffffffffffffffffffffffffffffffffffffffff1673ffffffffffffffffffffffffffffffffffffffff1681526020018263ffffffff1681526020019250505060405180910390a150565b600160000160009054906101000a900473ffffffffffffffffffffffffffffffffffffffff1673ffffffffffffffffffffffffffffffffffffffff163373ffffffffffffffffffffffffffffffffffffffff16146116b1576040517f08c379a000000000000000000000000000000000000000000000000000000000815260040180806020018281038252601a8152602001807f4f6e6c7920706c617965722063616e2063616c6c20746869732e00000000000081525060200191505060405180910390fd5b6116b9610482565b6015600160020160019054906101000a900463ffffffff1663ffffffff16111561174b576040517f08c379a00000000000000000000000000000000000000000000000000000000081526004018080602001828103825260208152602001807f596f75277665206c6f73742e546f74616c20706f696e7473206f76657220323181525060200191505060405180910390fd5b6000611755611d9b565b905061176081611e38565b7fb79970cf7e85476cae318f2f10e3b68525cf8e5b3a153f12a89ecb2f2edf9a01600160000160009054906101000a900473ffffffffffffffffffffffffffffffffffffffff16600160020160019054906101000a900463ffffffff16604051808373ffffffffffffffffffffffffffffffffffffffff1673ffffffffffffffffffffffffffffffffffffffff1681526020018263ffffffff1681526020019250505060405180910390a150565b600560000160009054906101000a900473ffffffffffffffffffffffffffffffffffffffff1673ffffffffffffffffffffffffffffffffffffffff163373ffffffffffffffffffffffffffffffffffffffff16146118d4576040517f08c379a000000000000000000000000000000000000000000000000000000000815260040180806020018281038252601a8152602001807f4f6e6c79206465616c65722063616e2063616c6c20746869732e00000000000081525060200191505060405180910390fd5b600160020160009054906101000a900460ff161561195a576040517f08c379a000000000000000000000000000000000000000000000000000000000815260040180806020018281038252601d8152602001807f54686520706c6179657220616c7265616479206861732063617264732e00000081525060200191505060405180910390fd5b600060098054905014156119d6576040517f08c379a000000000000000000000000000000000000000000000000000000000815260040180806020018281038252601a8152602001807f4e6f206d6f726520636172647320696e20746865206465636b2100000000000081525060200191505060405180910390fd5b60006119e0611d9b565b90506005600301600982815481106119f457fe5b90600052602060002090600202019080600181540180825580915050906001820390600052602060002090600202016000909192909190915060008201816000019080546001816001161561010002031660029004611a5492919061252f565b506001820160009054906101000a900460ff168160010160006101000a81548160ff021916908360ff16021790555050505060098181548110611a9357fe5b906000526020600020906002020160010160009054906101000a900460ff1660ff16600560020160008282829054906101000a900463ffffffff160192506101000a81548163ffffffff021916908363ffffffff16021790555060096001600a60169054906101000a900463ffffffff160363ffffffff1681548110611b1557fe5b906000526020600020906002020160098281548110611b3057fe5b906000526020600020906002020160008201816000019080546001816001161561010002031660029004611b6592919061252f565b506001820160009054906101000a900460ff168160010160006101000a81548160ff021916908360ff16021790555090505060096001600a60169054906101000a900463ffffffff160363ffffffff1681548110611bbf57fe5b906000526020600020906002020160008082016000611bde91906125b6565b6001820160006101000a81549060ff02191690555050600a601681819054906101000a900463ffffffff16809291906001900391906101000a81548163ffffffff021916908363ffffffff160217905550506000611c3a611d9b565b90506000611c46611d9b565b9050611c52828261208f565b60018060020160006101000a81548160ff0219169083151502179055507f801142d4815df6228c2504370343b430ea366897420d133fe209e047747106ba600560000160009054906101000a900473ffffffffffffffffffffffffffffffffffffffff16600560020160009054906101000a900463ffffffff16600160000160009054906101000a900473ffffffffffffffffffffffffffffffffffffffff16600160020160019054906101000a900463ffffffff16604051808573ffffffffffffffffffffffffffffffffffffffff1673ffffffffffffffffffffffffffffffffffffffff1681526020018463ffffffff1681526020018373ffffffffffffffffffffffffffffffffffffffff1673ffffffffffffffffffffffffffffffffffffffff1681526020018263ffffffff16815260200194505050505060405180910390a1505050565b6000600b60008154809291906001019190505550600a60169054906101000a900463ffffffff1663ffffffff1633600b54604051602001808373ffffffffffffffffffffffffffffffffffffffff1673ffffffffffffffffffffffffffffffffffffffff1660601b8152601401828152602001925050506040516020818303038152906040528051906020012060001c81611e3257fe5b06905090565b6000600990506001600301818381548110611e4f57fe5b90600052602060002090600202019080600181540180825580915050906001820390600052602060002090600202016000909192909190915060008201816000019080546001816001161561010002031660029004611eaf92919061252f565b506001820160009054906101000a900460ff168160010160006101000a81548160ff021916908360ff16021790555050505060098281548110611eee57fe5b906000526020600020906002020160010160009054906101000a900460ff1660ff16600160020160018282829054906101000a900463ffffffff160192506101000a81548163ffffffff021916908363ffffffff16021790555060096001600a60169054906101000a900463ffffffff160363ffffffff1681548110611f7057fe5b906000526020600020906002020160098381548110611f8b57fe5b906000526020600020906002020160008201816000019080546001816001161561010002031660029004611fc092919061252f565b506001820160009054906101000a900460ff168160010160006101000a81548160ff021916908360ff16021790555090505060096001600a60169054906101000a900463ffffffff160363ffffffff168154811061201a57fe5b90600052602060002090600202016000808201600061203991906125b6565b6001820160006101000a81549060ff02191690555050600a601681819054906101000a900463ffffffff16809291906001900391906101000a81548163ffffffff021916908363ffffffff160217905550505050565b6001600301600983815481106120a157fe5b9060005260206000209060020201908060018154018082558091505090600182039060005260206000209060020201600090919290919091506000820181600001908054600181600116156101000203166002900461210192919061252f565b506001820160009054906101000a900460ff168160010160006101000a81548160ff021916908360ff1602179055505050506009828154811061214057fe5b906000526020600020906002020160010160009054906101000a900460ff1660ff16600160020160018282829054906101000a900463ffffffff160192506101000a81548163ffffffff021916908363ffffffff16021790555060096001600a60169054906101000a900463ffffffff160363ffffffff16815481106121c257fe5b9060005260206000209060020201600983815481106121dd57fe5b90600052602060002090600202016000820181600001908054600181600116156101000203166002900461221292919061252f565b506001820160009054906101000a900460ff168160010160006101000a81548160ff021916908360ff16021790555090505060096001600a60169054906101000a900463ffffffff160363ffffffff168154811061226c57fe5b90600052602060002090600202016000808201600061228b91906125b6565b6001820160006101000a81549060ff02191690555050600a601681819054906101000a900463ffffffff16809291906001900391906101000a81548163ffffffff021916908363ffffffff160217905550506001600301600982815481106122ef57fe5b9060005260206000209060020201908060018154018082558091505090600182039060005260206000209060020201600090919290919091506000820181600001908054600181600116156101000203166002900461234f92919061252f565b506001820160009054906101000a900460ff168160010160006101000a81548160ff021916908360ff1602179055505050506009818154811061238e57fe5b906000526020600020906002020160010160009054906101000a900460ff1660ff16600160020160018282829054906101000a900463ffffffff160192506101000a81548163ffffffff021916908363ffffffff16021790555060096001600a60169054906101000a900463ffffffff160363ffffffff168154811061241057fe5b90600052602060002090600202016009828154811061242b57fe5b90600052602060002090600202016000820181600001908054600181600116156101000203166002900461246092919061252f565b506001820160009054906101000a900460ff168160010160006101000a81548160ff021916908360ff16021790555090505060096001600a60169054906101000a900463ffffffff160363ffffffff16815481106124ba57fe5b9060005260206000209060020201600080820160006124d991906125b6565b6001820160006101000a81549060ff02191690555050600a601681819054906101000a900463ffffffff16809291906001900391906101000a81548163ffffffff021916908363ffffffff160217905550505050565b828054600181600116156101000203166002900490600052602060002090601f016020900481019282601f1061256857805485556125a5565b828001600101855582156125a557600052602060002091601f016020900482015b828111156125a4578254825591600101919060010190612589565b5b5090506125b291906125fe565b5090565b50805460018160011615610100020316600290046000825580601f106125dc57506125fb565b601f0160209004906000526020600020908101906125fa91906125fe565b5b50565b61262091905b8082111561261c576000816000905550600101612604565b5090565b9056fea265627a7a72315820bda6934fb781c217b43aeb89c8b4307521639140085cfa16ee5f232ef994a1c364736f6c63430005100032",
  "source": "pragma solidity >=0.5.0 <0.8.0;\n// https://eips.ethereum.org/EIPS/eip-20\n// SPDX-License-Identifier: MIT\nimport \"./FishkaToken.sol\";\n\ncontract BlackJack {\n    struct Player {\n        address payable name; // \n        uint256 cashAmmount; // \n        bool hasCards;\n        uint32 sumPlayer;\n        Card[] cards;\n    }\n    struct Card {\n        string name; // \n        uint8 rate; //  \n    }\n    struct Dealer {\n        address payable name; // \n        uint256 cashAmmount; // \n        uint32 sumDealer; //  \n        Card[] cards;\n    }\n    FishkaToken token;\n    Player player;\n    Dealer dealer;\n    Card[] public deck; // \n\n    address winner;\n    bool public standP; //    \n    bool public standD; //    \n\n    uint32 constant Cards = 52;\n    uint32 ammountOfCards;\n\n    event Deposit(address _from, uint256 _value);\n    event Get_Cards(address _from, uint256 sum);\n    event Compare(address d, uint256 sumd, address p, uint256 sump);\n    modifier points_player() {\n        check_cards();\n        require(player.sumPlayer <= 21, \"You've lost.Total points over 21\");\n        _;\n    } //    \n\n    modifier points_dealer() {\n        check_cards();\n        require(dealer.sumDealer <= 17, \"Total points over 17\");\n        _;\n    } //    \n    modifier only_dealer() {\n        require(msg.sender == dealer.name, \"Only dealer can call this.\");\n        _;\n    }\n\n    modifier only_player() {\n        require(msg.sender == player.name, \"Only player can call this.\");\n        _;\n    }\n\n    function choose_dealer(uint256 amount) public payable {\n        //token.transfer(msg.sender, amount);\n        dealer.name = msg.sender;\n        //dealer.cashAmmount = msg.value;\n        //emit Deposit(msg.sender, msg.value);\n    } //   \n\n    function choose_player(uint256 value) public payable {\n        //player.cashAmmount = msg.value;\n        token.transferFrom(dealer.name, msg.sender, 2);\n        player.name = msg.sender;\n        //emit Deposit(msg.sender, msg.value);\n    } //   \n\n    function add_money_player() public payable only_player {\n        player.cashAmmount += msg.value;\n        emit Deposit(msg.sender, msg.value);\n    } //  \n\n    function add_money_dealer() public payable only_dealer {\n        dealer.cashAmmount += msg.value;\n        emit Deposit(msg.sender, msg.value);\n        require(\n            (player.cashAmmount) == dealer.cashAmmount,\n            \"Rates must be the same.\"\n        );\n    } //  \n\n    function giveToPlayer(uint256 card1, uint256 card2) private {\n        player.cards.push(deck[card1]);\n        player.sumPlayer += deck[card1].rate;\n        deck[card1] = deck[ammountOfCards - 1];\n        delete deck[ammountOfCards - 1];\n        ammountOfCards--;\n\n        player.cards.push(deck[card2]);\n        player.sumPlayer += deck[card2].rate;\n        deck[card2] = deck[ammountOfCards - 1];\n        delete deck[ammountOfCards - 1];\n        ammountOfCards--;\n    }\n\n    function giveToPlayer(uint256 card) private {\n        Card[] storage card1 = deck;\n        player.cards.push(card1[card]);\n        player.sumPlayer += deck[card].rate;\n        deck[card] = deck[ammountOfCards - 1];\n        delete deck[ammountOfCards - 1];\n        ammountOfCards--;\n    }\n\n    function giveCards() public only_dealer {\n        require(!player.hasCards, \"The player already has cards.\");\n        require(deck.length != 0, \"No more cards in the deck!\");\n\n        // \n        uint256 card = rand();\n        dealer.cards.push(deck[card]);\n        dealer.sumDealer += deck[card].rate;\n        deck[card] = deck[ammountOfCards - 1];\n        delete deck[ammountOfCards - 1];\n        ammountOfCards--;\n\n        uint256 card1 = rand();\n        uint256 card2 = rand();\n\n        giveToPlayer(card1, card2);\n\n        player.hasCards = true;\n        emit Compare(\n            dealer.name,\n            dealer.sumDealer,\n            player.name,\n            player.sumPlayer\n        );\n    } // \n\n    function hit_dealer() public only_dealer points_dealer {\n        uint256 cardDealer = rand();\n        dealer.cards.push(deck[cardDealer]);\n        dealer.sumDealer += deck[cardDealer].rate;\n        deck[cardDealer] = deck[ammountOfCards - 1];\n        delete deck[ammountOfCards - 1];\n        ammountOfCards--;\n        emit Get_Cards(dealer.name, dealer.sumDealer);\n    } //   \n\n    function hit_player() public only_player points_player {\n        uint256 cardPlayer = rand();\n        giveToPlayer(cardPlayer);\n        emit Get_Cards(player.name, player.sumPlayer);\n    }\n\n    function stand() public {\n        if (msg.sender == dealer.name) {\n            standD = true;\n        } else {\n            standP = true;\n        }\n    } //   \n\n    function check_cards() public {\n        require(\n            player.hasCards,\n            \"Player doesn't have cards\" //    \n        );\n        player.sumPlayer = 0;\n        dealer.sumDealer = 0;\n        for (uint32 i = 0; i < player.cards.length; i++) {\n            player.sumPlayer += player.cards[i].rate;\n        }\n        for (uint32 i = 0; i < dealer.cards.length; i++) {\n            dealer.sumDealer += dealer.cards[i].rate;\n        }\n    } //   \n\n    function checkWinner() public {\n        require(\n            (player.cashAmmount) == dealer.cashAmmount,\n            \"Rates must be the same.\"\n        );\n        require(standP == true && standD == true, \"Not all made 'stand\");\n        if ((player.sumPlayer > dealer.sumDealer) && (player.sumPlayer <= 21)) {\n            player.name.transfer(dealer.cashAmmount + player.cashAmmount);\n            winner = player.name;\n        } else if (player.sumPlayer == dealer.sumDealer) {\n            dealer.name.transfer(dealer.cashAmmount);\n            player.name.transfer(player.cashAmmount);\n        } else {\n            dealer.name.transfer(dealer.cashAmmount + player.cashAmmount);\n            winner = dealer.name;\n        }\n        emit Compare(\n            dealer.name,\n            dealer.sumDealer,\n            player.name,\n            player.sumPlayer\n        );\n    }\n\n    function check() public view returns (address) {\n        return winner;\n    }\n\n    function fillDeck() private {\n        ammountOfCards = Cards;\n        //  52 ,  \n        for (uint8 i = 0; i < 4; i++) {\n            //   2  10\n            for (uint8 j = 2; j <= 10; j++) {\n                deck.push(Card({name: uint2str(j), rate: j}));\n            }\n            deck.push(\n                Card({\n                    name: \"Jack\", //\n                    rate: 10\n                })\n            );\n            deck.push(\n                Card({\n                    name: \"Lady\", //\n                    rate: 10\n                })\n            );\n            deck.push(\n                Card({\n                    name: \"King\", //\n                    rate: 10\n                })\n            );\n            deck.push(\n                Card({\n                    name: \"Ace\", //\n                    rate: 11\n                })\n            );\n        }\n    }\n\n    constructor(FishkaToken _token) public {\n        dealer.cashAmmount = 0;\n        player.cashAmmount = 0;\n        dealer.sumDealer = 0;\n        player.sumPlayer = 0;\n        fillDeck();\n    }\n\n    // \n    //\n    uint256 randNonce = 0;\n\n    function rand() internal returns (uint256) {\n        randNonce++;\n        return\n            uint256(keccak256(abi.encodePacked(msg.sender, randNonce))) %\n            ammountOfCards;\n    }\n\n    function uint2str(uint8 _i)\n        internal\n        pure\n        returns (string memory _uintAsString)\n    {\n        if (_i == 0) {\n            return \"0\";\n        }\n        uint256 j = _i;\n        uint256 len = 0;\n        while (j != 0) {\n            len++;\n            j /= 10;\n        }\n        bytes memory bstr = new bytes(len);\n        uint256 k = len;\n        while (true) {\n            k = k - 1;\n            uint8 temp = (48 + uint8(_i - (_i / 10) * 10));\n            bytes1 b1 = bytes1(temp);\n            bstr[k] = b1;\n            _i /= 10;\n            if (_i != 0) {\n                continue;\n            } else break;\n        }\n        return string(bstr);\n    }\n}\n",
  "sourcePath": "/Users/mikhail/Downloads/Token_lab_3-main/contracts/BlackJack.sol",
  "compiler": {
    "name": "solc",
    "version": "0.5.16+commit.9c3226ce.Emscripten.clang"
  },
  "schemaVersion": "3.3.4",
  "updatedAt": "2021-04-14T19:49:26.977Z",
  "networkType": "ethereum",
  "devdoc": {
    "methods": {}
  },
  "userdoc": {
    "methods": {}
  }
}