{
  "contractName": "BlackJack",
  "abi": [
    {
      "inputs": [
        {
          "internalType": "contract FishkaToken",
          "name": "_token",
          "type": "address"
        }
      ],
      "payable": false,
      "stateMutability": "nonpayable",
      "type": "constructor"
    },
    {
      "anonymous": false,
      "inputs": [
        {
          "indexed": false,
          "internalType": "address",
          "name": "d",
          "type": "address"
        },
        {
          "indexed": false,
          "internalType": "uint256",
          "name": "sumd",
          "type": "uint256"
        },
        {
          "indexed": false,
          "internalType": "address",
          "name": "p",
          "type": "address"
        },
        {
          "indexed": false,
          "internalType": "uint256",
          "name": "sump",
          "type": "uint256"
        }
      ],
      "name": "Compare",
      "type": "event"
    },
    {
      "anonymous": false,
      "inputs": [
        {
          "indexed": false,
          "internalType": "address",
          "name": "_from",
          "type": "address"
        },
        {
          "indexed": false,
          "internalType": "uint256",
          "name": "_value",
          "type": "uint256"
        }
      ],
      "name": "Deposit",
      "type": "event"
    },
    {
      "anonymous": false,
      "inputs": [
        {
          "indexed": false,
          "internalType": "address",
          "name": "_from",
          "type": "address"
        },
        {
          "indexed": false,
          "internalType": "uint256",
          "name": "sum",
          "type": "uint256"
        }
      ],
      "name": "Get_Cards",
      "type": "event"
    },
    {
      "constant": true,
      "inputs": [
        {
          "internalType": "uint256",
          "name": "",
          "type": "uint256"
        }
      ],
      "name": "deck",
      "outputs": [
        {
          "internalType": "string",
          "name": "name",
          "type": "string"
        },
        {
          "internalType": "uint8",
          "name": "rate",
          "type": "uint8"
        }
      ],
      "payable": false,
      "stateMutability": "view",
      "type": "function"
    },
    {
      "constant": true,
      "inputs": [],
      "name": "standD",
      "outputs": [
        {
          "internalType": "bool",
          "name": "",
          "type": "bool"
        }
      ],
      "payable": false,
      "stateMutability": "view",
      "type": "function"
    },
    {
      "constant": true,
      "inputs": [],
      "name": "standP",
      "outputs": [
        {
          "internalType": "bool",
          "name": "",
          "type": "bool"
        }
      ],
      "payable": false,
      "stateMutability": "view",
      "type": "function"
    },
    {
      "constant": false,
      "inputs": [
        {
          "internalType": "uint256",
          "name": "value",
          "type": "uint256"
        }
      ],
      "name": "choose_dealer",
      "outputs": [],
      "payable": false,
      "stateMutability": "nonpayable",
      "type": "function"
    },
    {
      "constant": false,
      "inputs": [
        {
          "internalType": "uint256",
          "name": "value",
          "type": "uint256"
        }
      ],
      "name": "choose_player",
      "outputs": [],
      "payable": false,
      "stateMutability": "nonpayable",
      "type": "function"
    },
    {
      "constant": false,
      "inputs": [
        {
          "internalType": "uint256",
          "name": "value",
          "type": "uint256"
        }
      ],
      "name": "add_money_player",
      "outputs": [],
      "payable": true,
      "stateMutability": "payable",
      "type": "function"
    },
    {
      "constant": false,
      "inputs": [
        {
          "internalType": "uint256",
          "name": "value",
          "type": "uint256"
        }
      ],
      "name": "add_money_dealer",
      "outputs": [],
      "payable": true,
      "stateMutability": "payable",
      "type": "function"
    },
    {
      "constant": false,
      "inputs": [],
      "name": "giveCards",
      "outputs": [],
      "payable": false,
      "stateMutability": "nonpayable",
      "type": "function"
    },
    {
      "constant": false,
      "inputs": [],
      "name": "hit_dealer",
      "outputs": [],
      "payable": false,
      "stateMutability": "nonpayable",
      "type": "function"
    },
    {
      "constant": false,
      "inputs": [],
      "name": "hit_player",
      "outputs": [],
      "payable": false,
      "stateMutability": "nonpayable",
      "type": "function"
    },
    {
      "constant": false,
      "inputs": [],
      "name": "stand",
      "outputs": [],
      "payable": false,
      "stateMutability": "nonpayable",
      "type": "function"
    },
    {
      "constant": false,
      "inputs": [],
      "name": "check_cards",
      "outputs": [],
      "payable": false,
      "stateMutability": "nonpayable",
      "type": "function"
    },
    {
      "constant": false,
      "inputs": [],
      "name": "checkWinner",
      "outputs": [],
      "payable": false,
      "stateMutability": "nonpayable",
      "type": "function"
    },
    {
      "constant": true,
      "inputs": [],
      "name": "check",
      "outputs": [
        {
          "internalType": "address",
          "name": "",
          "type": "address"
        }
      ],
      "payable": false,
      "stateMutability": "view",
      "type": "function"
    }
  ],
  "bytecode": "0x60806040526000600b553480156200001657600080fd5b506040516200386738038062003867833981810160405260208110156200003c57600080fd5b8101908080519060200190929190505050806000806101000a81548173ffffffffffffffffffffffffffffffffffffffff021916908373ffffffffffffffffffffffffffffffffffffffff1602179055506000600560010181905550600060018001819055506000600560020160006101000a81548163ffffffff021916908363ffffffff1602179055506000600160020160016101000a81548163ffffffff021916908363ffffffff160217905550620000fc6200010360201b60201c565b506200070b565b6034600a60166101000a81548163ffffffff021916908363ffffffff16021790555060008090505b60048160ff161015620004f8576000600290505b600a8160ff1611620001f157600960405180604001604052806200016984620004fb60201b60201c565b81526020018360ff16815250908060018154018082558091505090600182039060005260206000209060020201600090919290919091506000820151816000019080519060200190620001be9291906200065c565b5060208201518160010160006101000a81548160ff021916908360ff16021790555050505080806001019150506200013f565b50600960405180604001604052806040518060400160405280600481526020017f4a61636b000000000000000000000000000000000000000000000000000000008152508152602001600a60ff168152509080600181540180825580915050906001820390600052602060002090600202016000909192909190915060008201518160000190805190602001906200028b9291906200065c565b5060208201518160010160006101000a81548160ff021916908360ff160217905550505050600960405180604001604052806040518060400160405280600481526020017f4c616479000000000000000000000000000000000000000000000000000000008152508152602001600a60ff16815250908060018154018082558091505090600182039060005260206000209060020201600090919290919091506000820151816000019080519060200190620003499291906200065c565b5060208201518160010160006101000a81548160ff021916908360ff160217905550505050600960405180604001604052806040518060400160405280600481526020017f4b696e67000000000000000000000000000000000000000000000000000000008152508152602001600a60ff16815250908060018154018082558091505090600182039060005260206000209060020201600090919290919091506000820151816000019080519060200190620004079291906200065c565b5060208201518160010160006101000a81548160ff021916908360ff160217905550505050600960405180604001604052806040518060400160405280600381526020017f41636500000000000000000000000000000000000000000000000000000000008152508152602001600b60ff16815250908060018154018082558091505090600182039060005260206000209060020201600090919290919091506000820151816000019080519060200190620004c59291906200065c565b5060208201518160010160006101000a81548160ff021916908360ff16021790555050505080806001019150506200012b565b50565b606060008260ff16141562000548576040518060400160405280600181526020017f3000000000000000000000000000000000000000000000000000000000000000815250905062000657565b60008260ff16905060008090505b600082146200057b578080600101915050600a82816200057257fe5b04915062000556565b6060816040519080825280601f01601f191660200182016040528015620005b15781602001600182028038833980820191505090505b50905060008290505b6001156200064f576001810390506000600a808860ff1681620005d957fe5b04028703603001905060008160f81b905080848481518110620005f857fe5b60200101907effffffffffffffffffffffffffffffffffffffffffffffffffffffffffffff1916908160001a905350600a8860ff16816200063557fe5b04975060008860ff16146200064c575050620005ba565b50505b819450505050505b919050565b828054600181600116156101000203166002900490600052602060002090601f016020900481019282601f106200069f57805160ff1916838001178555620006d0565b82800160010185558215620006d0579182015b82811115620006cf578251825591602001919060010190620006b2565b5b509050620006df9190620006e3565b5090565b6200070891905b8082111562000704576000816000905550600101620006ea565b5090565b90565b61314c806200071b6000396000f3fe6080604052600436106100dd5760003560e01c8063a07267291161007f578063d0fc60bd11610059578063d0fc60bd14610341578063e3107de914610358578063f19248201461036f578063f53f1f3014610386576100dd565b8063a0726729146102e5578063ad38867e14610313578063c2897b101461032a576100dd565b806365c5d425116100bb57806365c5d4251461020d5780637310c2ef146102245780638831d5c414610253578063919840ad1461028e576100dd565b80633f7063a2146100e25780635a12c1721461011157806365b1dafa1461014c575b600080fd5b3480156100ee57600080fd5b506100f76103b4565b604051808215151515815260200191505060405180910390f35b34801561011d57600080fd5b5061014a6004803603602081101561013457600080fd5b81019080803590602001909291905050506103c7565b005b34801561015857600080fd5b506101856004803603602081101561016f57600080fd5b810190808035906020019092919050505061054b565b60405180806020018360ff1660ff168152602001828103825284818151815260200191508051906020019080838360005b838110156101d15780820151818401526020810190506101b6565b50505050905090810190601f1680156101fe5780820380516001836020036101000a031916815260200191505b50935050505060405180910390f35b34801561021957600080fd5b50610222610621565b005b34801561023057600080fd5b50610239610826565b604051808215151515815260200191505060405180910390f35b34801561025f57600080fd5b5061028c6004803603602081101561027657600080fd5b8101908080359060200190929190505050610839565b005b34801561029a57600080fd5b506102a36109bc565b604051808273ffffffffffffffffffffffffffffffffffffffff1673ffffffffffffffffffffffffffffffffffffffff16815260200191505060405180910390f35b610311600480360360208110156102fb57600080fd5b81019080803590602001909291905050506109e6565b005b34801561031f57600080fd5b50610328610c65565b005b34801561033657600080fd5b5061033f6115f2565b005b34801561034d57600080fd5b50610356611956565b005b34801561036457600080fd5b5061036d611dbe565b005b34801561037b57600080fd5b50610384611fe1565b005b6103b26004803603602081101561039c57600080fd5b810190808035906020019092919050505061256e565b005b600a60159054906101000a900460ff1681565b80806000809054906101000a900473ffffffffffffffffffffffffffffffffffffffff1673ffffffffffffffffffffffffffffffffffffffff166370a08231336040518263ffffffff1660e01b8152600401808273ffffffffffffffffffffffffffffffffffffffff1673ffffffffffffffffffffffffffffffffffffffff16815260200191505060206040518083038186803b15801561046757600080fd5b505afa15801561047b573d6000803e3d6000fd5b505050506040513d602081101561049157600080fd5b810190808051906020019092919050505010156104f9576040517f08c379a00000000000000000000000000000000000000000000000000000000081526004018080602001828103825260228152602001806130f66022913960400191505060405180910390fd5b8160056001018190555033600560000160006101000a81548173ffffffffffffffffffffffffffffffffffffffff021916908373ffffffffffffffffffffffffffffffffffffffff1602179055505050565b6009818154811061055857fe5b9060005260206000209060020201600091509050806000018054600181600116156101000203166002900480601f0160208091040260200160405190810160405280929190818152602001828054600181600116156101000203166002900480156106045780601f106105d957610100808354040283529160200191610604565b820191906000526020600020905b8154815290600101906020018083116105e757829003601f168201915b5050505050908060010160009054906101000a900460ff16905082565b600160020160009054906101000a900460ff166106a6576040517f08c379a00000000000000000000000000000000000000000000000000000000081526004018080602001828103825260198152602001807f506c6179657220646f65736e277420686176652063617264730000000000000081525060200191505060405180910390fd5b6000600160020160016101000a81548163ffffffff021916908363ffffffff1602179055506000600560020160006101000a81548163ffffffff021916908363ffffffff16021790555060008090505b6001600301805490508163ffffffff1610156107895760016003018163ffffffff168154811061072257fe5b906000526020600020906002020160010160009054906101000a900460ff1660ff16600160020160018282829054906101000a900463ffffffff160192506101000a81548163ffffffff021916908363ffffffff16021790555080806001019150506106f6565b5060008090505b6005600301805490508163ffffffff1610156108235760056003018163ffffffff16815481106107bc57fe5b906000526020600020906002020160010160009054906101000a900460ff1660ff16600560020160008282829054906101000a900463ffffffff160192506101000a81548163ffffffff021916908363ffffffff1602179055508080600101915050610790565b50565b600a60149054906101000a900460ff1681565b80806000809054906101000a900473ffffffffffffffffffffffffffffffffffffffff1673ffffffffffffffffffffffffffffffffffffffff166370a08231336040518263ffffffff1660e01b8152600401808273ffffffffffffffffffffffffffffffffffffffff1673ffffffffffffffffffffffffffffffffffffffff16815260200191505060206040518083038186803b1580156108d957600080fd5b505afa1580156108ed573d6000803e3d6000fd5b505050506040513d602081101561090357600080fd5b8101908080519060200190929190505050101561096b576040517f08c379a00000000000000000000000000000000000000000000000000000000081526004018080602001828103825260228152602001806130f66022913960400191505060405180910390fd5b81600180018190555033600160000160006101000a81548173ffffffffffffffffffffffffffffffffffffffff021916908373ffffffffffffffffffffffffffffffffffffffff1602179055505050565b6000600a60009054906101000a900473ffffffffffffffffffffffffffffffffffffffff16905090565b600160000160009054906101000a900473ffffffffffffffffffffffffffffffffffffffff1673ffffffffffffffffffffffffffffffffffffffff163373ffffffffffffffffffffffffffffffffffffffff1614610aac576040517f08c379a000000000000000000000000000000000000000000000000000000000815260040180806020018281038252601a8152602001807f4f6e6c7920706c617965722063616e2063616c6c20746869732e00000000000081525060200191505060405180910390fd5b80600180015401806000809054906101000a900473ffffffffffffffffffffffffffffffffffffffff1673ffffffffffffffffffffffffffffffffffffffff166370a08231336040518263ffffffff1660e01b8152600401808273ffffffffffffffffffffffffffffffffffffffff1673ffffffffffffffffffffffffffffffffffffffff16815260200191505060206040518083038186803b158015610b5257600080fd5b505afa158015610b66573d6000803e3d6000fd5b505050506040513d6020811015610b7c57600080fd5b81019080805190602001909291905050501015610be4576040517f08c379a00000000000000000000000000000000000000000000000000000000081526004018080602001828103825260228152602001806130f66022913960400191505060405180910390fd5b8160018001600082825401925050819055507fe1fffcc4923d04b559f4d29a8bfc6cda04eb5b0d3c460751c2402c5c5cc9109c3383604051808373ffffffffffffffffffffffffffffffffffffffff1673ffffffffffffffffffffffffffffffffffffffff1681526020018281526020019250505060405180910390a15050565b600560010154600180015414610ce3576040517f08c379a00000000000000000000000000000000000000000000000000000000081526004018080602001828103825260178152602001807f5261746573206d757374206265207468652073616d652e00000000000000000081525060200191505060405180910390fd5b60011515600a60149054906101000a900460ff161515148015610d19575060011515600a60159054906101000a900460ff161515145b610d8b576040517f08c379a00000000000000000000000000000000000000000000000000000000081526004018080602001828103825260138152602001807f4e6f7420616c6c206d61646520277374616e640000000000000000000000000081525060200191505060405180910390fd5b600560020160009054906101000a900463ffffffff1663ffffffff16600160020160019054906101000a900463ffffffff1663ffffffff16118015610dec57506015600160020160019054906101000a900463ffffffff1663ffffffff1611155b8015610e1457506015600560020160009054906101000a900463ffffffff1663ffffffff1611155b15610feb576000809054906101000a900473ffffffffffffffffffffffffffffffffffffffff1673ffffffffffffffffffffffffffffffffffffffff166323b872dd600560000160009054906101000a900473ffffffffffffffffffffffffffffffffffffffff16600160000160009054906101000a900473ffffffffffffffffffffffffffffffffffffffff166005600101546040518463ffffffff1660e01b8152600401808473ffffffffffffffffffffffffffffffffffffffff1673ffffffffffffffffffffffffffffffffffffffff1681526020018373ffffffffffffffffffffffffffffffffffffffff1673ffffffffffffffffffffffffffffffffffffffff1681526020018281526020019350505050602060405180830381600087803b158015610f4457600080fd5b505af1158015610f58573d6000803e3d6000fd5b505050506040513d6020811015610f6e57600080fd5b810190808051906020019092919050505050600160000160009054906101000a900473ffffffffffffffffffffffffffffffffffffffff16600a60006101000a81548173ffffffffffffffffffffffffffffffffffffffff021916908373ffffffffffffffffffffffffffffffffffffffff1602179055506114c9565b600560020160009054906101000a900463ffffffff1663ffffffff16600160020160019054906101000a900463ffffffff1663ffffffff1614156112fb576000809054906101000a900473ffffffffffffffffffffffffffffffffffffffff1673ffffffffffffffffffffffffffffffffffffffff166323b872dd600560000160009054906101000a900473ffffffffffffffffffffffffffffffffffffffff16600160000160009054906101000a900473ffffffffffffffffffffffffffffffffffffffff166005600101546040518463ffffffff1660e01b8152600401808473ffffffffffffffffffffffffffffffffffffffff1673ffffffffffffffffffffffffffffffffffffffff1681526020018373ffffffffffffffffffffffffffffffffffffffff1673ffffffffffffffffffffffffffffffffffffffff1681526020018281526020019350505050602060405180830381600087803b15801561115457600080fd5b505af1158015611168573d6000803e3d6000fd5b505050506040513d602081101561117e57600080fd5b8101908080519060200190929190505050506000809054906101000a900473ffffffffffffffffffffffffffffffffffffffff1673ffffffffffffffffffffffffffffffffffffffff166323b872dd600160000160009054906101000a900473ffffffffffffffffffffffffffffffffffffffff16600560000160009054906101000a900473ffffffffffffffffffffffffffffffffffffffff1660018001546040518463ffffffff1660e01b8152600401808473ffffffffffffffffffffffffffffffffffffffff1673ffffffffffffffffffffffffffffffffffffffff1681526020018373ffffffffffffffffffffffffffffffffffffffff1673ffffffffffffffffffffffffffffffffffffffff1681526020018281526020019350505050602060405180830381600087803b1580156112ba57600080fd5b505af11580156112ce573d6000803e3d6000fd5b505050506040513d60208110156112e457600080fd5b8101908080519060200190929190505050506114c8565b6000809054906101000a900473ffffffffffffffffffffffffffffffffffffffff1673ffffffffffffffffffffffffffffffffffffffff166323b872dd600160000160009054906101000a900473ffffffffffffffffffffffffffffffffffffffff16600560000160009054906101000a900473ffffffffffffffffffffffffffffffffffffffff1660018001546040518463ffffffff1660e01b8152600401808473ffffffffffffffffffffffffffffffffffffffff1673ffffffffffffffffffffffffffffffffffffffff1681526020018373ffffffffffffffffffffffffffffffffffffffff1673ffffffffffffffffffffffffffffffffffffffff1681526020018281526020019350505050602060405180830381600087803b15801561142557600080fd5b505af1158015611439573d6000803e3d6000fd5b505050506040513d602081101561144f57600080fd5b810190808051906020019092919050505050600560000160009054906101000a900473ffffffffffffffffffffffffffffffffffffffff16600a60006101000a81548173ffffffffffffffffffffffffffffffffffffffff021916908373ffffffffffffffffffffffffffffffffffffffff1602179055505b5b7f801142d4815df6228c2504370343b430ea366897420d133fe209e047747106ba600560000160009054906101000a900473ffffffffffffffffffffffffffffffffffffffff16600560020160009054906101000a900463ffffffff16600160000160009054906101000a900473ffffffffffffffffffffffffffffffffffffffff16600160020160019054906101000a900463ffffffff16604051808573ffffffffffffffffffffffffffffffffffffffff1673ffffffffffffffffffffffffffffffffffffffff1681526020018463ffffffff1681526020018373ffffffffffffffffffffffffffffffffffffffff1673ffffffffffffffffffffffffffffffffffffffff1681526020018263ffffffff16815260200194505050505060405180910390a1565b600560000160009054906101000a900473ffffffffffffffffffffffffffffffffffffffff1673ffffffffffffffffffffffffffffffffffffffff163373ffffffffffffffffffffffffffffffffffffffff1614156117d2576001600a60156101000a81548160ff0219169083151502179055506000809054906101000a900473ffffffffffffffffffffffffffffffffffffffff1673ffffffffffffffffffffffffffffffffffffffff1663e1f21c67600560000160009054906101000a900473ffffffffffffffffffffffffffffffffffffffff16600160000160009054906101000a900473ffffffffffffffffffffffffffffffffffffffff166005600101546040518463ffffffff1660e01b8152600401808473ffffffffffffffffffffffffffffffffffffffff1673ffffffffffffffffffffffffffffffffffffffff1681526020018373ffffffffffffffffffffffffffffffffffffffff1673ffffffffffffffffffffffffffffffffffffffff1681526020018281526020019350505050602060405180830381600087803b15801561179157600080fd5b505af11580156117a5573d6000803e3d6000fd5b505050506040513d60208110156117bb57600080fd5b810190808051906020019092919050505050611954565b6001600a60146101000a81548160ff0219169083151502179055506000809054906101000a900473ffffffffffffffffffffffffffffffffffffffff1673ffffffffffffffffffffffffffffffffffffffff1663e1f21c67600160000160009054906101000a900473ffffffffffffffffffffffffffffffffffffffff16600560000160009054906101000a900473ffffffffffffffffffffffffffffffffffffffff1660018001546040518463ffffffff1660e01b8152600401808473ffffffffffffffffffffffffffffffffffffffff1673ffffffffffffffffffffffffffffffffffffffff1681526020018373ffffffffffffffffffffffffffffffffffffffff1673ffffffffffffffffffffffffffffffffffffffff1681526020018281526020019350505050602060405180830381600087803b15801561191757600080fd5b505af115801561192b573d6000803e3d6000fd5b505050506040513d602081101561194157600080fd5b8101908080519060200190929190505050505b565b600560000160009054906101000a900473ffffffffffffffffffffffffffffffffffffffff1673ffffffffffffffffffffffffffffffffffffffff163373ffffffffffffffffffffffffffffffffffffffff1614611a1c576040517f08c379a000000000000000000000000000000000000000000000000000000000815260040180806020018281038252601a8152602001807f4f6e6c79206465616c65722063616e2063616c6c20746869732e00000000000081525060200191505060405180910390fd5b611a24610621565b6011600560020160009054906101000a900463ffffffff1663ffffffff161115611ab6576040517f08c379a00000000000000000000000000000000000000000000000000000000081526004018080602001828103825260148152602001807f546f74616c20706f696e7473206f76657220313700000000000000000000000081525060200191505060405180910390fd5b6000611ac061286d565b9050600560030160098281548110611ad457fe5b90600052602060002090600202019080600181540180825580915050906001820390600052602060002090600202016000909192909190915060008201816000019080546001816001161561010002031660029004611b34929190613001565b506001820160009054906101000a900460ff168160010160006101000a81548160ff021916908360ff16021790555050505060098181548110611b7357fe5b906000526020600020906002020160010160009054906101000a900460ff1660ff16600560020160008282829054906101000a900463ffffffff160192506101000a81548163ffffffff021916908363ffffffff16021790555060096001600a60169054906101000a900463ffffffff160363ffffffff1681548110611bf557fe5b906000526020600020906002020160098281548110611c1057fe5b906000526020600020906002020160008201816000019080546001816001161561010002031660029004611c45929190613001565b506001820160009054906101000a900460ff168160010160006101000a81548160ff021916908360ff16021790555090505060096001600a60169054906101000a900463ffffffff160363ffffffff1681548110611c9f57fe5b906000526020600020906002020160008082016000611cbe9190613088565b6001820160006101000a81549060ff02191690555050600a601681819054906101000a900463ffffffff16809291906001900391906101000a81548163ffffffff021916908363ffffffff160217905550507fb79970cf7e85476cae318f2f10e3b68525cf8e5b3a153f12a89ecb2f2edf9a01600560000160009054906101000a900473ffffffffffffffffffffffffffffffffffffffff16600560020160009054906101000a900463ffffffff16604051808373ffffffffffffffffffffffffffffffffffffffff1673ffffffffffffffffffffffffffffffffffffffff1681526020018263ffffffff1681526020019250505060405180910390a150565b600160000160009054906101000a900473ffffffffffffffffffffffffffffffffffffffff1673ffffffffffffffffffffffffffffffffffffffff163373ffffffffffffffffffffffffffffffffffffffff1614611e84576040517f08c379a000000000000000000000000000000000000000000000000000000000815260040180806020018281038252601a8152602001807f4f6e6c7920706c617965722063616e2063616c6c20746869732e00000000000081525060200191505060405180910390fd5b611e8c610621565b6015600160020160019054906101000a900463ffffffff1663ffffffff161115611f1e576040517f08c379a00000000000000000000000000000000000000000000000000000000081526004018080602001828103825260208152602001807f596f75277665206c6f73742e546f74616c20706f696e7473206f76657220323181525060200191505060405180910390fd5b6000611f2861286d565b9050611f338161290a565b7fb79970cf7e85476cae318f2f10e3b68525cf8e5b3a153f12a89ecb2f2edf9a01600160000160009054906101000a900473ffffffffffffffffffffffffffffffffffffffff16600160020160019054906101000a900463ffffffff16604051808373ffffffffffffffffffffffffffffffffffffffff1673ffffffffffffffffffffffffffffffffffffffff1681526020018263ffffffff1681526020019250505060405180910390a150565b600560000160009054906101000a900473ffffffffffffffffffffffffffffffffffffffff1673ffffffffffffffffffffffffffffffffffffffff163373ffffffffffffffffffffffffffffffffffffffff16146120a7576040517f08c379a000000000000000000000000000000000000000000000000000000000815260040180806020018281038252601a8152602001807f4f6e6c79206465616c65722063616e2063616c6c20746869732e00000000000081525060200191505060405180910390fd5b600160020160009054906101000a900460ff161561212d576040517f08c379a000000000000000000000000000000000000000000000000000000000815260040180806020018281038252601d8152602001807f54686520706c6179657220616c7265616479206861732063617264732e00000081525060200191505060405180910390fd5b600060098054905014156121a9576040517f08c379a000000000000000000000000000000000000000000000000000000000815260040180806020018281038252601a8152602001807f4e6f206d6f726520636172647320696e20746865206465636b2100000000000081525060200191505060405180910390fd5b60006121b361286d565b90506005600301600982815481106121c757fe5b90600052602060002090600202019080600181540180825580915050906001820390600052602060002090600202016000909192909190915060008201816000019080546001816001161561010002031660029004612227929190613001565b506001820160009054906101000a900460ff168160010160006101000a81548160ff021916908360ff1602179055505050506009818154811061226657fe5b906000526020600020906002020160010160009054906101000a900460ff1660ff16600560020160008282829054906101000a900463ffffffff160192506101000a81548163ffffffff021916908363ffffffff16021790555060096001600a60169054906101000a900463ffffffff160363ffffffff16815481106122e857fe5b90600052602060002090600202016009828154811061230357fe5b906000526020600020906002020160008201816000019080546001816001161561010002031660029004612338929190613001565b506001820160009054906101000a900460ff168160010160006101000a81548160ff021916908360ff16021790555090505060096001600a60169054906101000a900463ffffffff160363ffffffff168154811061239257fe5b9060005260206000209060020201600080820160006123b19190613088565b6001820160006101000a81549060ff02191690555050600a601681819054906101000a900463ffffffff16809291906001900391906101000a81548163ffffffff021916908363ffffffff16021790555050600061240d61286d565b9050600061241961286d565b90506124258282612b61565b60018060020160006101000a81548160ff0219169083151502179055507f801142d4815df6228c2504370343b430ea366897420d133fe209e047747106ba600560000160009054906101000a900473ffffffffffffffffffffffffffffffffffffffff16600560020160009054906101000a900463ffffffff16600160000160009054906101000a900473ffffffffffffffffffffffffffffffffffffffff16600160020160019054906101000a900463ffffffff16604051808573ffffffffffffffffffffffffffffffffffffffff1673ffffffffffffffffffffffffffffffffffffffff1681526020018463ffffffff1681526020018373ffffffffffffffffffffffffffffffffffffffff1673ffffffffffffffffffffffffffffffffffffffff1681526020018263ffffffff16815260200194505050505060405180910390a1505050565b600560000160009054906101000a900473ffffffffffffffffffffffffffffffffffffffff1673ffffffffffffffffffffffffffffffffffffffff163373ffffffffffffffffffffffffffffffffffffffff1614612634576040517f08c379a000000000000000000000000000000000000000000000000000000000815260040180806020018281038252601a8152602001807f4f6e6c79206465616c65722063616e2063616c6c20746869732e00000000000081525060200191505060405180910390fd5b8060056001015401806000809054906101000a900473ffffffffffffffffffffffffffffffffffffffff1673ffffffffffffffffffffffffffffffffffffffff166370a08231336040518263ffffffff1660e01b8152600401808273ffffffffffffffffffffffffffffffffffffffff1673ffffffffffffffffffffffffffffffffffffffff16815260200191505060206040518083038186803b1580156126db57600080fd5b505afa1580156126ef573d6000803e3d6000fd5b505050506040513d602081101561270557600080fd5b8101908080519060200190929190505050101561276d576040517f08c379a00000000000000000000000000000000000000000000000000000000081526004018080602001828103825260228152602001806130f66022913960400191505060405180910390fd5b816005600101600082825401925050819055507fe1fffcc4923d04b559f4d29a8bfc6cda04eb5b0d3c460751c2402c5c5cc9109c3383604051808373ffffffffffffffffffffffffffffffffffffffff1673ffffffffffffffffffffffffffffffffffffffff1681526020018281526020019250505060405180910390a1600560010154600180015414612869576040517f08c379a00000000000000000000000000000000000000000000000000000000081526004018080602001828103825260178152602001807f5261746573206d757374206265207468652073616d652e00000000000000000081525060200191505060405180910390fd5b5050565b6000600b60008154809291906001019190505550600a60169054906101000a900463ffffffff1663ffffffff1633600b54604051602001808373ffffffffffffffffffffffffffffffffffffffff1673ffffffffffffffffffffffffffffffffffffffff1660601b8152601401828152602001925050506040516020818303038152906040528051906020012060001c8161290457fe5b06905090565b600060099050600160030181838154811061292157fe5b90600052602060002090600202019080600181540180825580915050906001820390600052602060002090600202016000909192909190915060008201816000019080546001816001161561010002031660029004612981929190613001565b506001820160009054906101000a900460ff168160010160006101000a81548160ff021916908360ff160217905550505050600982815481106129c057fe5b906000526020600020906002020160010160009054906101000a900460ff1660ff16600160020160018282829054906101000a900463ffffffff160192506101000a81548163ffffffff021916908363ffffffff16021790555060096001600a60169054906101000a900463ffffffff160363ffffffff1681548110612a4257fe5b906000526020600020906002020160098381548110612a5d57fe5b906000526020600020906002020160008201816000019080546001816001161561010002031660029004612a92929190613001565b506001820160009054906101000a900460ff168160010160006101000a81548160ff021916908360ff16021790555090505060096001600a60169054906101000a900463ffffffff160363ffffffff1681548110612aec57fe5b906000526020600020906002020160008082016000612b0b9190613088565b6001820160006101000a81549060ff02191690555050600a601681819054906101000a900463ffffffff16809291906001900391906101000a81548163ffffffff021916908363ffffffff160217905550505050565b600160030160098381548110612b7357fe5b90600052602060002090600202019080600181540180825580915050906001820390600052602060002090600202016000909192909190915060008201816000019080546001816001161561010002031660029004612bd3929190613001565b506001820160009054906101000a900460ff168160010160006101000a81548160ff021916908360ff16021790555050505060098281548110612c1257fe5b906000526020600020906002020160010160009054906101000a900460ff1660ff16600160020160018282829054906101000a900463ffffffff160192506101000a81548163ffffffff021916908363ffffffff16021790555060096001600a60169054906101000a900463ffffffff160363ffffffff1681548110612c9457fe5b906000526020600020906002020160098381548110612caf57fe5b906000526020600020906002020160008201816000019080546001816001161561010002031660029004612ce4929190613001565b506001820160009054906101000a900460ff168160010160006101000a81548160ff021916908360ff16021790555090505060096001600a60169054906101000a900463ffffffff160363ffffffff1681548110612d3e57fe5b906000526020600020906002020160008082016000612d5d9190613088565b6001820160006101000a81549060ff02191690555050600a601681819054906101000a900463ffffffff16809291906001900391906101000a81548163ffffffff021916908363ffffffff16021790555050600160030160098281548110612dc157fe5b90600052602060002090600202019080600181540180825580915050906001820390600052602060002090600202016000909192909190915060008201816000019080546001816001161561010002031660029004612e21929190613001565b506001820160009054906101000a900460ff168160010160006101000a81548160ff021916908360ff16021790555050505060098181548110612e6057fe5b906000526020600020906002020160010160009054906101000a900460ff1660ff16600160020160018282829054906101000a900463ffffffff160192506101000a81548163ffffffff021916908363ffffffff16021790555060096001600a60169054906101000a900463ffffffff160363ffffffff1681548110612ee257fe5b906000526020600020906002020160098281548110612efd57fe5b906000526020600020906002020160008201816000019080546001816001161561010002031660029004612f32929190613001565b506001820160009054906101000a900460ff168160010160006101000a81548160ff021916908360ff16021790555090505060096001600a60169054906101000a900463ffffffff160363ffffffff1681548110612f8c57fe5b906000526020600020906002020160008082016000612fab9190613088565b6001820160006101000a81549060ff02191690555050600a601681819054906101000a900463ffffffff16809291906001900391906101000a81548163ffffffff021916908363ffffffff160217905550505050565b828054600181600116156101000203166002900490600052602060002090601f016020900481019282601f1061303a5780548555613077565b8280016001018555821561307757600052602060002091601f016020900482015b8281111561307657825482559160010191906001019061305b565b5b50905061308491906130d0565b5090565b50805460018160011615610100020316600290046000825580601f106130ae57506130cd565b601f0160209004906000526020600020908101906130cc91906130d0565b5b50565b6130f291905b808211156130ee5760008160009055506001016130d6565b5090565b9056fe596f75206e656564206d6f726520466973686b61546f6b656e7320746f20706c6179a265627a7a72315820e30a5ec684ee24c4637b45add7c3430cf6ef4a1a8a74214258964df1520b881264736f6c63430005100032",
  "source": "pragma solidity >=0.5.0 <0.8.0;\n// https://eips.ethereum.org/EIPS/eip-20\n// SPDX-License-Identifier: MIT\nimport \"./FishkaToken.sol\";\n\ncontract BlackJack {\n    struct Player {\n        address payable name; // \n        uint256 cashAmmount; // \n        bool hasCards;\n        uint32 sumPlayer;\n        Card[] cards;\n    }\n    struct Card {\n        string name; // \n        uint8 rate; //  \n    }\n    struct Dealer {\n        address payable name; // \n        uint256 cashAmmount; // \n        uint32 sumDealer; //  \n        Card[] cards;\n    }\n    FishkaToken token; // \n    Player player;\n    Dealer dealer;\n    Card[] public deck; // \n\n    address winner;\n    bool public standP; //    \n    bool public standD; //    \n\n    uint32 constant Cards = 52;\n    uint32 ammountOfCards;\n\n    event Deposit(address _from, uint256 _value);\n    event Get_Cards(address _from, uint256 sum);\n    event Compare(address d, uint256 sumd, address p, uint256 sump);\n    modifier points_player() {\n        check_cards();\n        require(player.sumPlayer <= 21, \"You've lost.Total points over 21\");\n        _;\n    } //    \n\n    modifier points_dealer() {\n        check_cards();\n        require(dealer.sumDealer <= 17, \"Total points over 17\");\n        _;\n    } //    \n    modifier only_dealer() {\n        require(msg.sender == dealer.name, \"Only dealer can call this.\");\n        _;\n    }\n\n    modifier only_player() {\n        require(msg.sender == player.name, \"Only player can call this.\");\n        _;\n    }\n\n    modifier check_balance(uint256 value) {\n        require(\n            token.balanceOf(msg.sender) >= value,\n            \"You need more FishkaTokens to play\"\n        );\n        _;\n    }\n\n    function choose_dealer(uint256 value) public check_balance(value) {\n        dealer.cashAmmount = value;\n        dealer.name = msg.sender;\n    }\n\n    function choose_player(uint256 value) public check_balance(value) {\n        player.cashAmmount = value;\n        player.name = msg.sender;\n    }\n\n    function add_money_player(uint256 value)\n        public\n        payable\n        only_player\n        check_balance(player.cashAmmount + value)\n    {\n        player.cashAmmount += value;\n        emit Deposit(msg.sender, value);\n    } //  \n\n    function add_money_dealer(uint256 value)\n        public\n        payable\n        only_dealer\n        check_balance(dealer.cashAmmount + value)\n    {\n        dealer.cashAmmount += value;\n        emit Deposit(msg.sender, value);\n        require(\n            (player.cashAmmount) == dealer.cashAmmount,\n            \"Rates must be the same.\"\n        );\n    } //  \n\n    function giveToPlayer(uint256 card1, uint256 card2) private {\n        player.cards.push(deck[card1]);\n        player.sumPlayer += deck[card1].rate;\n        deck[card1] = deck[ammountOfCards - 1];\n        delete deck[ammountOfCards - 1];\n        ammountOfCards--;\n\n        player.cards.push(deck[card2]);\n        player.sumPlayer += deck[card2].rate;\n        deck[card2] = deck[ammountOfCards - 1];\n        delete deck[ammountOfCards - 1];\n        ammountOfCards--;\n    }\n\n    function giveToPlayer(uint256 card) private {\n        Card[] storage card1 = deck;\n        player.cards.push(card1[card]);\n        player.sumPlayer += deck[card].rate;\n        deck[card] = deck[ammountOfCards - 1];\n        delete deck[ammountOfCards - 1];\n        ammountOfCards--;\n    }\n\n    function giveCards() public only_dealer {\n        require(!player.hasCards, \"The player already has cards.\");\n        require(deck.length != 0, \"No more cards in the deck!\");\n\n        // \n        uint256 card = rand();\n        dealer.cards.push(deck[card]);\n        dealer.sumDealer += deck[card].rate;\n        deck[card] = deck[ammountOfCards - 1];\n        delete deck[ammountOfCards - 1];\n        ammountOfCards--;\n\n        uint256 card1 = rand();\n        uint256 card2 = rand();\n\n        giveToPlayer(card1, card2);\n\n        player.hasCards = true;\n        emit Compare(\n            dealer.name,\n            dealer.sumDealer,\n            player.name,\n            player.sumPlayer\n        );\n    } // \n\n    function hit_dealer() public only_dealer points_dealer {\n        uint256 cardDealer = rand();\n        dealer.cards.push(deck[cardDealer]);\n        dealer.sumDealer += deck[cardDealer].rate;\n        deck[cardDealer] = deck[ammountOfCards - 1];\n        delete deck[ammountOfCards - 1];\n        ammountOfCards--;\n        emit Get_Cards(dealer.name, dealer.sumDealer);\n    } //   \n\n    function hit_player() public only_player points_player {\n        uint256 cardPlayer = rand();\n        giveToPlayer(cardPlayer);\n        emit Get_Cards(player.name, player.sumPlayer);\n    }\n\n    function stand() public {\n        if (msg.sender == dealer.name) {\n            standD = true;\n            token.approve(dealer.name,player.name, dealer.cashAmmount);\n        } else {\n            standP = true;\n            token.approve(player.name, dealer.name, player.cashAmmount);\n        }\n    } //   \n\n    function check_cards() public {\n        require(\n            player.hasCards,\n            \"Player doesn't have cards\" //    \n        );\n        player.sumPlayer = 0;\n        dealer.sumDealer = 0;\n        for (uint32 i = 0; i < player.cards.length; i++) {\n            player.sumPlayer += player.cards[i].rate;\n        }\n        for (uint32 i = 0; i < dealer.cards.length; i++) {\n            dealer.sumDealer += dealer.cards[i].rate;\n        }\n    } //   \n\n    function checkWinner() public {\n        require(\n            (player.cashAmmount) == dealer.cashAmmount,\n            \"Rates must be the same.\"\n        );\n        require(standP == true && standD == true, \"Not all made 'stand\");\n        if (\n            (player.sumPlayer > dealer.sumDealer) &&\n            (player.sumPlayer <= 21) &&\n            (dealer.sumDealer <= 21)\n        ) {\n            token.transferFrom(dealer.name, player.name, dealer.cashAmmount);\n\n            winner = player.name;\n        } else if (player.sumPlayer == dealer.sumDealer) {\n            token.transferFrom(dealer.name, player.name, dealer.cashAmmount);\n            token.transferFrom(player.name, dealer.name, player.cashAmmount);\n        } else {\n            token.transferFrom(player.name, dealer.name, player.cashAmmount);\n            winner = dealer.name;\n        }\n        emit Compare(\n            dealer.name,\n            dealer.sumDealer,\n            player.name,\n            player.sumPlayer\n        );\n    }\n\n    function check() public view returns (address) {\n        return winner;\n    }\n\n    function fillDeck() private {\n        ammountOfCards = Cards;\n        //  52 ,  \n        for (uint8 i = 0; i < 4; i++) {\n            //   2  10\n            for (uint8 j = 2; j <= 10; j++) {\n                deck.push(Card({name: uint2str(j), rate: j}));\n            }\n            deck.push(\n                Card({\n                    name: \"Jack\", //\n                    rate: 10\n                })\n            );\n            deck.push(\n                Card({\n                    name: \"Lady\", //\n                    rate: 10\n                })\n            );\n            deck.push(\n                Card({\n                    name: \"King\", //\n                    rate: 10\n                })\n            );\n            deck.push(\n                Card({\n                    name: \"Ace\", //\n                    rate: 11\n                })\n            );\n        }\n    }\n\n    constructor(FishkaToken _token) public {\n        token = _token;\n        dealer.cashAmmount = 0;\n        player.cashAmmount = 0;\n        dealer.sumDealer = 0;\n        player.sumPlayer = 0;\n        fillDeck();\n    }\n\n    // \n    //\n    uint256 randNonce = 0;\n\n    function rand() internal returns (uint256) {\n        randNonce++;\n        return\n            uint256(keccak256(abi.encodePacked(msg.sender, randNonce))) %\n            ammountOfCards;\n    }\n\n    function uint2str(uint8 _i)\n        internal\n        pure\n        returns (string memory _uintAsString)\n    {\n        if (_i == 0) {\n            return \"0\";\n        }\n        uint256 j = _i;\n        uint256 len = 0;\n        while (j != 0) {\n            len++;\n            j /= 10;\n        }\n        bytes memory bstr = new bytes(len);\n        uint256 k = len;\n        while (true) {\n            k = k - 1;\n            uint8 temp = (48 + uint8(_i - (_i / 10) * 10));\n            bytes1 b1 = bytes1(temp);\n            bstr[k] = b1;\n            _i /= 10;\n            if (_i != 0) {\n                continue;\n            } else break;\n        }\n        return string(bstr);\n    }\n}\n",
  "sourcePath": "/Users/mikhail/Downloads/Token_lab_3-main/contracts/BlackJack.sol",
  "compiler": {
    "name": "solc",
    "version": "0.5.16+commit.9c3226ce.Emscripten.clang"
  },
  "schemaVersion": "3.3.4",
  "updatedAt": "2021-04-18T10:54:23.808Z",
  "networkType": "ethereum",
  "devdoc": {
    "methods": {}
  },
  "userdoc": {
    "methods": {}
  }
}