{
  "contractName": "TokenERC20",
  "abi": [
    {
      "inputs": [
        {
          "internalType": "uint256",
          "name": "initialSupply",
          "type": "uint256"
        },
        {
          "internalType": "string",
          "name": "tokenName",
          "type": "string"
        },
        {
          "internalType": "string",
          "name": "tokenSymbol",
          "type": "string"
        }
      ],
      "payable": false,
      "stateMutability": "nonpayable",
      "type": "constructor"
    },
    {
      "anonymous": false,
      "inputs": [
        {
          "indexed": true,
          "internalType": "address",
          "name": "from",
          "type": "address"
        },
        {
          "indexed": false,
          "internalType": "uint256",
          "name": "value",
          "type": "uint256"
        }
      ],
      "name": "Burn",
      "type": "event"
    },
    {
      "anonymous": false,
      "inputs": [
        {
          "indexed": true,
          "internalType": "address",
          "name": "from",
          "type": "address"
        },
        {
          "indexed": true,
          "internalType": "address",
          "name": "to",
          "type": "address"
        },
        {
          "indexed": false,
          "internalType": "uint256",
          "name": "value",
          "type": "uint256"
        }
      ],
      "name": "Transfer",
      "type": "event"
    },
    {
      "constant": true,
      "inputs": [
        {
          "internalType": "address",
          "name": "",
          "type": "address"
        },
        {
          "internalType": "address",
          "name": "",
          "type": "address"
        }
      ],
      "name": "allowance",
      "outputs": [
        {
          "internalType": "uint256",
          "name": "",
          "type": "uint256"
        }
      ],
      "payable": false,
      "stateMutability": "view",
      "type": "function"
    },
    {
      "constant": true,
      "inputs": [
        {
          "internalType": "address",
          "name": "",
          "type": "address"
        }
      ],
      "name": "balanceOf",
      "outputs": [
        {
          "internalType": "uint256",
          "name": "",
          "type": "uint256"
        }
      ],
      "payable": false,
      "stateMutability": "view",
      "type": "function"
    },
    {
      "constant": true,
      "inputs": [],
      "name": "decimals",
      "outputs": [
        {
          "internalType": "uint8",
          "name": "",
          "type": "uint8"
        }
      ],
      "payable": false,
      "stateMutability": "view",
      "type": "function"
    },
    {
      "constant": true,
      "inputs": [],
      "name": "name",
      "outputs": [
        {
          "internalType": "string",
          "name": "",
          "type": "string"
        }
      ],
      "payable": false,
      "stateMutability": "view",
      "type": "function"
    },
    {
      "constant": true,
      "inputs": [],
      "name": "symbol",
      "outputs": [
        {
          "internalType": "string",
          "name": "",
          "type": "string"
        }
      ],
      "payable": false,
      "stateMutability": "view",
      "type": "function"
    },
    {
      "constant": true,
      "inputs": [],
      "name": "totalSupply",
      "outputs": [
        {
          "internalType": "uint256",
          "name": "",
          "type": "uint256"
        }
      ],
      "payable": false,
      "stateMutability": "view",
      "type": "function"
    },
    {
      "constant": false,
      "inputs": [
        {
          "internalType": "uint256",
          "name": "ts",
          "type": "uint256"
        }
      ],
      "name": "setTotalSupply",
      "outputs": [],
      "payable": false,
      "stateMutability": "nonpayable",
      "type": "function"
    },
    {
      "constant": false,
      "inputs": [
        {
          "internalType": "address",
          "name": "_from",
          "type": "address"
        },
        {
          "internalType": "address",
          "name": "_to",
          "type": "address"
        },
        {
          "internalType": "uint256",
          "name": "_value",
          "type": "uint256"
        }
      ],
      "name": "Shmelev",
      "outputs": [],
      "payable": false,
      "stateMutability": "nonpayable",
      "type": "function"
    },
    {
      "constant": false,
      "inputs": [
        {
          "internalType": "address",
          "name": "from",
          "type": "address"
        },
        {
          "internalType": "address",
          "name": "_to",
          "type": "address"
        },
        {
          "internalType": "uint256",
          "name": "_value",
          "type": "uint256"
        }
      ],
      "name": "transferShmel",
      "outputs": [],
      "payable": false,
      "stateMutability": "nonpayable",
      "type": "function"
    },
    {
      "constant": false,
      "inputs": [
        {
          "internalType": "address",
          "name": "_from",
          "type": "address"
        },
        {
          "internalType": "address",
          "name": "_to",
          "type": "address"
        },
        {
          "internalType": "uint256",
          "name": "_value",
          "type": "uint256"
        }
      ],
      "name": "transferFrom",
      "outputs": [
        {
          "internalType": "bool",
          "name": "success",
          "type": "bool"
        }
      ],
      "payable": false,
      "stateMutability": "nonpayable",
      "type": "function"
    },
    {
      "constant": false,
      "inputs": [
        {
          "internalType": "address",
          "name": "_spender",
          "type": "address"
        },
        {
          "internalType": "uint256",
          "name": "_value",
          "type": "uint256"
        }
      ],
      "name": "approve",
      "outputs": [
        {
          "internalType": "bool",
          "name": "success",
          "type": "bool"
        }
      ],
      "payable": false,
      "stateMutability": "nonpayable",
      "type": "function"
    },
    {
      "constant": false,
      "inputs": [
        {
          "internalType": "uint256",
          "name": "_value",
          "type": "uint256"
        }
      ],
      "name": "burn",
      "outputs": [
        {
          "internalType": "bool",
          "name": "success",
          "type": "bool"
        }
      ],
      "payable": false,
      "stateMutability": "nonpayable",
      "type": "function"
    },
    {
      "constant": false,
      "inputs": [
        {
          "internalType": "address",
          "name": "_from",
          "type": "address"
        },
        {
          "internalType": "uint256",
          "name": "_value",
          "type": "uint256"
        }
      ],
      "name": "burnFrom",
      "outputs": [
        {
          "internalType": "bool",
          "name": "success",
          "type": "bool"
        }
      ],
      "payable": false,
      "stateMutability": "nonpayable",
      "type": "function"
    }
  ],
  "bytecode": "0x60806040526012600260006101000a81548160ff021916908360ff1602179055503480156200002d57600080fd5b506040516200158138038062001581833981810160405260608110156200005357600080fd5b8101908080519060200190929190805160405193929190846401000000008211156200007e57600080fd5b838201915060208201858111156200009557600080fd5b8251866001820283011164010000000082111715620000b357600080fd5b8083526020830192505050908051906020019080838360005b83811015620000e9578082015181840152602081019050620000cc565b50505050905090810190601f168015620001175780820380516001836020036101000a031916815260200191505b50604052602001805160405193929190846401000000008211156200013b57600080fd5b838201915060208201858111156200015257600080fd5b82518660018202830111640100000000821117156200017057600080fd5b8083526020830192505050908051906020019080838360005b83811015620001a657808201518184015260208101905062000189565b50505050905090810190601f168015620001d45780820380516001836020036101000a031916815260200191505b50604052505050600260009054906101000a900460ff1660ff16600a0a8302600381905550600354600460003373ffffffffffffffffffffffffffffffffffffffff1673ffffffffffffffffffffffffffffffffffffffff168152602001908152602001600020819055508160009080519060200190620002579291906200027a565b508060019080519060200190620002709291906200027a565b5050505062000329565b828054600181600116156101000203166002900490600052602060002090601f016020900481019282601f10620002bd57805160ff1916838001178555620002ee565b82800160010185558215620002ee579182015b82811115620002ed578251825591602001919060010190620002d0565b5b509050620002fd919062000301565b5090565b6200032691905b808211156200032257600081600090555060010162000308565b5090565b90565b61124880620003396000396000f3fe608060405234801561001057600080fd5b50600436106100cf5760003560e01c806342966c681161008c57806379cc67901161006657806379cc6790146103ff57806395d89b4114610465578063dd62ed3e146104e8578063f7ea7a3d14610560576100cf565b806342966c68146102f357806370a082311461033957806375bd495c14610391576100cf565b806306fdde03146100d4578063095ea7b31461015757806318160ddd146101bd57806323b872dd146101db578063283f54b814610261578063313ce567146102cf575b600080fd5b6100dc61058e565b6040518080602001828103825283818151815260200191508051906020019080838360005b8381101561011c578082015181840152602081019050610101565b50505050905090810190601f1680156101495780820380516001836020036101000a031916815260200191505b509250505060405180910390f35b6101a36004803603604081101561016d57600080fd5b81019080803573ffffffffffffffffffffffffffffffffffffffff1690602001909291908035906020019092919050505061062c565b604051808215151515815260200191505060405180910390f35b6101c56106b9565b6040518082815260200191505060405180910390f35b610247600480360360608110156101f157600080fd5b81019080803573ffffffffffffffffffffffffffffffffffffffff169060200190929190803573ffffffffffffffffffffffffffffffffffffffff169060200190929190803590602001909291905050506106bf565b604051808215151515815260200191505060405180910390f35b6102cd6004803603606081101561027757600080fd5b81019080803573ffffffffffffffffffffffffffffffffffffffff169060200190929190803573ffffffffffffffffffffffffffffffffffffffff16906020019092919080359060200190929190505050610836565b005b6102d7610c79565b604051808260ff1660ff16815260200191505060405180910390f35b61031f6004803603602081101561030957600080fd5b8101908080359060200190929190505050610c8c565b604051808215151515815260200191505060405180910390f35b61037b6004803603602081101561034f57600080fd5b81019080803573ffffffffffffffffffffffffffffffffffffffff169060200190929190505050610df7565b6040518082815260200191505060405180910390f35b6103fd600480360360608110156103a757600080fd5b81019080803573ffffffffffffffffffffffffffffffffffffffff169060200190929190803573ffffffffffffffffffffffffffffffffffffffff16906020019092919080359060200190929190505050610e0f565b005b61044b6004803603604081101561041557600080fd5b81019080803573ffffffffffffffffffffffffffffffffffffffff16906020019092919080359060200190929190505050610e1f565b604051808215151515815260200191505060405180910390f35b61046d6110ea565b6040518080602001828103825283818151815260200191508051906020019080838360005b838110156104ad578082015181840152602081019050610492565b50505050905090810190601f1680156104da5780820380516001836020036101000a031916815260200191505b509250505060405180910390f35b61054a600480360360408110156104fe57600080fd5b81019080803573ffffffffffffffffffffffffffffffffffffffff169060200190929190803573ffffffffffffffffffffffffffffffffffffffff169060200190929190505050611188565b6040518082815260200191505060405180910390f35b61058c6004803603602081101561057657600080fd5b81019080803590602001909291905050506111ad565b005b60008054600181600116156101000203166002900480601f0160208091040260200160405190810160405280929190818152602001828054600181600116156101000203166002900480156106245780601f106105f957610100808354040283529160200191610624565b820191906000526020600020905b81548152906001019060200180831161060757829003601f168201915b505050505081565b600081600560003373ffffffffffffffffffffffffffffffffffffffff1673ffffffffffffffffffffffffffffffffffffffff16815260200190815260200160002060008573ffffffffffffffffffffffffffffffffffffffff1673ffffffffffffffffffffffffffffffffffffffff168152602001908152602001600020819055506001905092915050565b60035481565b6000600560008573ffffffffffffffffffffffffffffffffffffffff1673ffffffffffffffffffffffffffffffffffffffff16815260200190815260200160002060003373ffffffffffffffffffffffffffffffffffffffff1673ffffffffffffffffffffffffffffffffffffffff16815260200190815260200160002054821115610796576040517f08c379a000000000000000000000000000000000000000000000000000000000815260040180806020018281038252602e8152602001806111b8602e913960400191505060405180910390fd5b81600560008673ffffffffffffffffffffffffffffffffffffffff1673ffffffffffffffffffffffffffffffffffffffff16815260200190815260200160002060003373ffffffffffffffffffffffffffffffffffffffff1673ffffffffffffffffffffffffffffffffffffffff1681526020019081526020016000206000828254039250508190555061082b848484610836565b600190509392505050565b600073ffffffffffffffffffffffffffffffffffffffff168273ffffffffffffffffffffffffffffffffffffffff1614156108bc576040517f08c379a000000000000000000000000000000000000000000000000000000000815260040180806020018281038252602e8152602001806111e6602e913960400191505060405180910390fd5b80600460008573ffffffffffffffffffffffffffffffffffffffff1673ffffffffffffffffffffffffffffffffffffffff168152602001908152602001600020541015610971576040517f08c379a000000000000000000000000000000000000000000000000000000000815260040180806020018281038252601e8152602001807f53656e6465722068617665206e6f20656e6f7567682063757272656e6379000081525060200191505060405180910390fd5b600460008373ffffffffffffffffffffffffffffffffffffffff1673ffffffffffffffffffffffffffffffffffffffff1681526020019081526020016000205481600460008573ffffffffffffffffffffffffffffffffffffffff1673ffffffffffffffffffffffffffffffffffffffff168152602001908152602001600020540111610a66576040517f08c379a000000000000000000000000000000000000000000000000000000000815260040180806020018281038252601a8152602001807f596f752073656e7420746f6f206d7563682063757272656e637900000000000081525060200191505060405180910390fd5b6000600460008473ffffffffffffffffffffffffffffffffffffffff1673ffffffffffffffffffffffffffffffffffffffff16815260200190815260200160002054600460008673ffffffffffffffffffffffffffffffffffffffff1673ffffffffffffffffffffffffffffffffffffffff1681526020019081526020016000205401905081600460008673ffffffffffffffffffffffffffffffffffffffff1673ffffffffffffffffffffffffffffffffffffffff1681526020019081526020016000206000828254039250508190555081600460008573ffffffffffffffffffffffffffffffffffffffff1673ffffffffffffffffffffffffffffffffffffffff168152602001908152602001600020600082825401925050819055508273ffffffffffffffffffffffffffffffffffffffff168473ffffffffffffffffffffffffffffffffffffffff167fddf252ad1be2c89b69c2b068fc378daa952ba7f163c4a11628f55a4df523b3ef846040518082815260200191505060405180910390a380600460008573ffffffffffffffffffffffffffffffffffffffff1673ffffffffffffffffffffffffffffffffffffffff16815260200190815260200160002054600460008773ffffffffffffffffffffffffffffffffffffffff1673ffffffffffffffffffffffffffffffffffffffff168152602001908152602001600020540114610c7357fe5b50505050565b600260009054906101000a900460ff1681565b600081600460003373ffffffffffffffffffffffffffffffffffffffff1673ffffffffffffffffffffffffffffffffffffffff168152602001908152602001600020541015610d43576040517f08c379a000000000000000000000000000000000000000000000000000000000815260040180806020018281038252601d8152602001807f53656e64657220686173206e6f20656e6f7567682063757272656e637900000081525060200191505060405180910390fd5b81600460003373ffffffffffffffffffffffffffffffffffffffff1673ffffffffffffffffffffffffffffffffffffffff16815260200190815260200160002060008282540392505081905550816003600082825403925050819055503373ffffffffffffffffffffffffffffffffffffffff167fcc16f5dbb4873280815c1ee09dbd06736cffcc184412cf7a71a0fdb75d397ca5836040518082815260200191505060405180910390a260019050919050565b60046020528060005260406000206000915090505481565b610e1a838383610836565b505050565b600081600460008573ffffffffffffffffffffffffffffffffffffffff1673ffffffffffffffffffffffffffffffffffffffff168152602001908152602001600020541015610ed6576040517f08c379a000000000000000000000000000000000000000000000000000000000815260040180806020018281038252601d8152602001807f53656e64657220686173206e6f20656e6f7567682063757272656e637900000081525060200191505060405180910390fd5b600560008473ffffffffffffffffffffffffffffffffffffffff1673ffffffffffffffffffffffffffffffffffffffff16815260200190815260200160002060003373ffffffffffffffffffffffffffffffffffffffff1673ffffffffffffffffffffffffffffffffffffffff16815260200190815260200160002054821115610fab576040517f08c379a000000000000000000000000000000000000000000000000000000000815260040180806020018281038252602e8152602001806111b8602e913960400191505060405180910390fd5b81600460008573ffffffffffffffffffffffffffffffffffffffff1673ffffffffffffffffffffffffffffffffffffffff1681526020019081526020016000206000828254039250508190555081600560008573ffffffffffffffffffffffffffffffffffffffff1673ffffffffffffffffffffffffffffffffffffffff16815260200190815260200160002060003373ffffffffffffffffffffffffffffffffffffffff1673ffffffffffffffffffffffffffffffffffffffff16815260200190815260200160002060008282540392505081905550816003600082825403925050819055508273ffffffffffffffffffffffffffffffffffffffff167fcc16f5dbb4873280815c1ee09dbd06736cffcc184412cf7a71a0fdb75d397ca5836040518082815260200191505060405180910390a26001905092915050565b60018054600181600116156101000203166002900480601f0160208091040260200160405190810160405280929190818152602001828054600181600116156101000203166002900480156111805780601f1061115557610100808354040283529160200191611180565b820191906000526020600020905b81548152906001019060200180831161116357829003601f168201915b505050505081565b6005602052816000526040600020602052806000526040600020600091509150505481565b806003819055505056fe53656e646572206469646e277420617070726f766564207375636820616d6f756e74206f662063757272656e637953656e6465722063616e2774207472616e736665722063757272656e637920746f206e756c6c2061646472657373a265627a7a7231582008aa2a9b059363eef81b706ed65d1543860c38650f66443b26dc8436cec43fde64736f6c63430005100032",
  "source": "pragma solidity >=0.4.22 <0.7.0;\r\ncontract TokenERC20 {\r\n    // Public variables of the token\r\n    string public name;\r\n    string public symbol;\r\n    uint8 public decimals = 18;\r\n    // 18 decimals is the strongly suggested default, avoid changing it\r\n    uint256 public totalSupply;\r\n\r\n    // This creates an array with all balances\r\n    mapping (address => uint256) public balanceOf;\r\n    mapping (address => mapping (address => uint256)) public allowance;\r\n\r\n    // This generates a public event on the blockchain that will notify clients\r\n    event Transfer(address indexed from, address indexed to, uint256 value);\r\n\r\n    // This notifies clients about the amount burnt\r\n    event Burn(address indexed from, uint256 value);\r\n\r\n    /**\r\n     * Constructor function\r\n     *\r\n     * Initializes contract with initial supply tokens to the creator of the contract\r\n     */\r\n    constructor(\r\n        uint256 initialSupply,\r\n        string memory tokenName,\r\n        string memory tokenSymbol\r\n    ) public {\r\n        totalSupply = initialSupply * 10 ** uint256(decimals);  // Update total supply with the decimal amount\r\n        balanceOf[msg.sender] = totalSupply;                // Give the creator all initial tokens\r\n        name = tokenName;                                   // Set the name for display purposes\r\n        symbol = tokenSymbol;                               // Set the symbol for display purposes\r\n    }\r\n\r\n    /**\r\n     * Internal transfer, only can be called by this contrac\r\n     */\r\n\r\n    function setTotalSupply(uint256 ts) external{\r\n        totalSupply = ts;\r\n    }\r\n    function Shmelev(address _from, address _to, uint _value) public {\r\n        // Prevent transfer to 0x0 address. Use burn() instead\r\n        require(_to != address(0x0), \"Sender can't transfer currency to null address\");\r\n        // Check if the sender has enough\r\n        require(balanceOf[_from] >= _value, \"Sender have no enough currency\");\r\n        // Check for overflows\r\n        require(balanceOf[_to] + _value > balanceOf[_to], \"You sent too much currency\");\r\n        // Save this for an assertion in the future\r\n        uint previousBalances = balanceOf[_from] + balanceOf[_to];\r\n        // Subtract from the sender\r\n        balanceOf[_from] -= _value;\r\n        // Add the same to the recipient\r\n        balanceOf[_to] += _value;\r\n        emit Transfer(_from, _to, _value);\r\n        // Asserts are used to use static analysis to find bugs in your code. They should never fail\r\n        assert(balanceOf[_from] + balanceOf[_to] == previousBalances);\r\n    }\r\n\r\n    /**\r\n     * Transfer tokens\r\n     *\r\n     * Send `_value` tokens to `_to` from your account\r\n     *\r\n     * @param _to The address of the recipient\r\n     * @param _value the amount to send\r\n     */\r\n    function transferShmel(address from, address _to, uint256 _value) external {\r\n        Shmelev(from, _to, _value);\r\n    }\r\n\r\n    /**\r\n     * Transfer tokens from other address\r\n     *\r\n     * Send `_value` tokens to `_to` on behalf of `_from`\r\n     *\r\n     * @param _from The address of the sender\r\n     * @param _to The address of the recipient\r\n     * @param _value the amount to send\r\n     */\r\n    function transferFrom(address _from, address _to, uint256 _value) public returns (bool success) {\r\n        require(_value <= allowance[_from][msg.sender], \"Sender didn't approved such amount of currency\");     // Check allowance\r\n        allowance[_from][msg.sender] -= _value;\r\n        Shmelev(_from, _to, _value);\r\n        return true;\r\n    }\r\n\r\n    /**\r\n     * Set allowance for other address\r\n     *\r\n     * Allows `_spender` to spend no more than `_value` tokens on your behalf\r\n     *\r\n     * @param _spender The address authorized to spend\r\n     * @param _value the max amount they can spend\r\n     */\r\n    function approve(address _spender, uint256 _value) public\r\n        returns (bool success) {\r\n        allowance[msg.sender][_spender] = _value;\r\n        return true;\r\n    }\r\n\r\n    /**\r\n     * Destroy tokens\r\n     *\r\n     * Remove `_value` tokens from the system irreversibly\r\n     *\r\n     * @param _value the amount of money to burn\r\n     */\r\n    function burn(uint256 _value) public returns (bool success) {\r\n        require(balanceOf[msg.sender] >= _value, \"Sender has no enough currency\");   // Check if the sender has enough\r\n        balanceOf[msg.sender] -= _value;            // Subtract from the sender\r\n        totalSupply -= _value;                      // Updates totalSupply\r\n        emit Burn(msg.sender, _value);\r\n        return true;\r\n    }\r\n\r\n    /**\r\n     * Destroy tokens from other account\r\n     *\r\n     * Remove `_value` tokens from the system irreversibly on behalf of `_from`.\r\n     *\r\n     * @param _from the address of the sender\r\n     * @param _value the amount of money to burn\r\n     */\r\n    function burnFrom(address _from, uint256 _value) public returns (bool success) {\r\n        require(balanceOf[_from] >= _value, 'Sender has no enough currency');                // Check if the targeted balance is enough\r\n        require(_value <= allowance[_from][msg.sender], \"Sender didn't approved such amount of currency\");    // Check allowance\r\n        balanceOf[_from] -= _value;                         // Subtract from the targeted balance\r\n        allowance[_from][msg.sender] -= _value;             // Subtract from the sender's allowance\r\n        totalSupply -= _value;                              // Update totalSupply\r\n        emit Burn(_from, _value);\r\n        return true;\r\n    }\r\n}\r\ncontract BlackJack  {\r\n    struct Player {\r\n        address payable name; //имя игрока\r\n        uint256 cashAmmount; //колличество денег\r\n        bool hasCards;\r\n        uint32 sumPlayer;\r\n        Card[] cards;\r\n    }\r\n    struct Card {\r\n        string name; //название карты\r\n        uint8 rate; //насколько карта сильна\r\n    }\r\n    struct Dealer {\r\n        address payable name; //имя дилера\r\n        uint256 cashAmmount; //колличество денег\r\n        uint32 sumDealer; //сумма очков дилера\r\n        Card[] cards;\r\n    }\r\n    TokenERC20 token;\r\n    Player player;\r\n    Dealer dealer;\r\n    Card[] public deck; //колода карт\r\n\r\n    address winner;\r\n    bool public standP; // сделал ли стэнд игрок\r\n    bool public standD; // сделал ли стэнд дилер\r\n\r\n    uint32 constant Cards = 52;\r\n    uint32 ammountOfCards;\r\n\r\n    event Deposit(address _from, uint256 _value);\r\n    event Get_Cards(address _from, uint256 sum);\r\n    event Compare(address d, uint256 sumd, address p, uint256 sump);\r\n    modifier points_player() {\r\n        check_cards();\r\n        require(player.sumPlayer <= 21, \"You've lost.Total points over 21\");\r\n        _;\r\n    } // проверка суммы баллов игрока\r\n\r\n    modifier points_dealer() {\r\n        check_cards();\r\n        require(dealer.sumDealer <= 17, \"Total points over 17\");\r\n        _;\r\n    } // провера суммы баллов дилера\r\n    modifier only_dealer() {\r\n        require(msg.sender == dealer.name, \"Only dealer can call this.\");\r\n        _;\r\n    }\r\n\r\n    modifier only_player() {\r\n        require(msg.sender == player.name, \"Only player can call this.\");\r\n        _;\r\n    }\r\n\r\n    function choose_dealer() public payable {\r\n        dealer.name = msg.sender;\r\n        dealer.cashAmmount = msg.value;\r\n        emit Deposit(msg.sender, msg.value);\r\n    } // получение адреса дилера\r\n\r\n    function choose_player() public payable {\r\n        player.cashAmmount = msg.value;\r\n        player.name = msg.sender;\r\n        emit Deposit(msg.sender, msg.value);\r\n    } // получение адреса игрока\r\n\r\n    function add_money_player() public payable only_player {\r\n        player.cashAmmount += msg.value;\r\n        emit Deposit(msg.sender, msg.value);\r\n    } // увеличение ставки\r\n\r\n    function add_money_dealer() public payable only_dealer {\r\n        dealer.cashAmmount += msg.value;\r\n        emit Deposit(msg.sender, msg.value);\r\n        require(\r\n            (player.cashAmmount) == dealer.cashAmmount,\r\n            \"Rates must be the same.\"\r\n        );\r\n    } // увеличение ставки\r\n\r\n    function giveToPlayer(uint256 card1, uint256 card2) private {\r\n        player.cards.push(deck[card1]);\r\n        player.sumPlayer += deck[card1].rate;\r\n        deck[card1] = deck[ammountOfCards - 1];\r\n        delete deck[ammountOfCards - 1];\r\n        ammountOfCards--;\r\n\r\n        player.cards.push(deck[card2]);\r\n        player.sumPlayer += deck[card2].rate;\r\n        deck[card2] = deck[ammountOfCards - 1];\r\n        delete deck[ammountOfCards - 1];\r\n        ammountOfCards--;\r\n    }\r\n\r\n    function giveToPlayer(uint256 card) private {\r\n        Card[] storage card1 = deck;\r\n        player.cards.push(card1[card]);\r\n        player.sumPlayer += deck[card].rate;\r\n        deck[card] = deck[ammountOfCards - 1];\r\n        delete deck[ammountOfCards - 1];\r\n        ammountOfCards--;\r\n    }\r\n\r\n    function giveCards() public only_dealer {\r\n        require(!player.hasCards, \"The player already has cards.\");\r\n        require(deck.length != 0, \"No more cards in the deck!\");\r\n\r\n        //выдача карт\r\n        uint256 card = rand();\r\n        dealer.cards.push(deck[card]);\r\n        dealer.sumDealer += deck[card].rate;\r\n        deck[card] = deck[ammountOfCards - 1];\r\n        delete deck[ammountOfCards - 1];\r\n        ammountOfCards--;\r\n\r\n        uint256 card1 = rand();\r\n        uint256 card2 = rand();\r\n\r\n        giveToPlayer(card1, card2);\r\n\r\n        player.hasCards = true;\r\n        emit Compare(\r\n            dealer.name,\r\n            dealer.sumDealer,\r\n            player.name,\r\n            player.sumPlayer\r\n        );\r\n    } //Раздать карты\r\n\r\n    function hit_dealer() public only_dealer points_dealer {\r\n        uint256 cardDealer = rand();\r\n        dealer.cards.push(deck[cardDealer]);\r\n        dealer.sumDealer += deck[cardDealer].rate;\r\n        deck[cardDealer] = deck[ammountOfCards - 1];\r\n        delete deck[ammountOfCards - 1];\r\n        ammountOfCards--;\r\n        emit Get_Cards(dealer.name, dealer.sumDealer);\r\n    } //взять еще одну карту\r\n\r\n    function hit_player() public only_player points_player {\r\n        uint256 cardPlayer = rand();\r\n        giveToPlayer(cardPlayer);\r\n        emit Get_Cards(player.name, player.sumPlayer);\r\n    }\r\n\r\n    function stand() public {\r\n        if (msg.sender == dealer.name) {\r\n            standD = true;\r\n        } else {\r\n            standP = true;\r\n        }\r\n    } // завершить набор карт\r\n\r\n    function check_cards() public {\r\n        require(\r\n            player.hasCards,\r\n            \"Player doesn't have cards\" // у игрока нет карт\r\n        );\r\n        player.sumPlayer = 0;\r\n        dealer.sumDealer = 0;\r\n        for (uint32 i = 0; i < player.cards.length; i++) {\r\n            player.sumPlayer += player.cards[i].rate;\r\n        }\r\n        for (uint32 i = 0; i < dealer.cards.length; i++) {\r\n            dealer.sumDealer += dealer.cards[i].rate;\r\n        }\r\n    } // подсчет суммы баллов\r\n\r\n    function checkWinner() public {\r\n        require(\r\n            (player.cashAmmount) == dealer.cashAmmount,\r\n            \"Rates must be the same.\"\r\n        );\r\n        require(standP == true && standD == true, \"Not all made 'stand\");\r\n        if ((player.sumPlayer > dealer.sumDealer) && (player.sumPlayer <= 21)) {\r\n            player.name.transfer(dealer.cashAmmount + player.cashAmmount);\r\n            token.transferShmel(player.name, dealer.name,dealer.cashAmmount + player.cashAmmount);\r\n            winner = player.name;\r\n        } else if (player.sumPlayer == dealer.sumDealer) {\r\n            dealer.name.transfer(dealer.cashAmmount);\r\n            player.name.transfer(player.cashAmmount);\r\n        } else {\r\n            dealer.name.transfer(dealer.cashAmmount + player.cashAmmount);\r\n            winner = dealer.name;\r\n        }\r\n        emit Compare(\r\n            dealer.name,\r\n            dealer.sumDealer,\r\n            player.name,\r\n            player.sumPlayer\r\n        );\r\n    }\r\n\r\n    function check() public view returns (address) {\r\n        return winner;\r\n    }\r\n\r\n    function fillDeck() private {\r\n        ammountOfCards = Cards;\r\n        //в колоде 52 карты, заполняем их\r\n        for (uint8 i = 0; i < 4; i++) {\r\n            //заполняем карты от 2 до 10\r\n            for (uint8 j = 2; j <= 10; j++) {\r\n                deck.push(Card({name: uint2str(j), rate: j}));\r\n            }\r\n            deck.push(\r\n                Card({\r\n                    name: \"Jack\", //валет\r\n                    rate: 10\r\n                })\r\n            );\r\n            deck.push(\r\n                Card({\r\n                    name: \"Lady\", //дама\r\n                    rate: 10\r\n                })\r\n            );\r\n            deck.push(\r\n                Card({\r\n                    name: \"King\", //король\r\n                    rate: 10\r\n                })\r\n            );\r\n            deck.push(\r\n                Card({\r\n                    name: \"Ace\", //туз\r\n                    rate: 11\r\n                })\r\n            );\r\n        }\r\n    }\r\n\r\n    constructor() public {\r\n        dealer.cashAmmount = 0;\r\n        player.cashAmmount = 0;\r\n        dealer.sumDealer = 0;\r\n        player.sumPlayer = 0;\r\n        token = new TokenERC20(10, \"ss\", \"s\");\r\n        \r\n        fillDeck();\r\n    }\r\n\r\n    //Вспомогательные функции\r\n    //Рандом\r\n    uint256 randNonce = 0;\r\n\r\n    function rand() internal returns (uint256) {\r\n        randNonce++;\r\n        return\r\n            uint256(keccak256(abi.encodePacked(msg.sender, randNonce))) %\r\n            ammountOfCards;\r\n    }\r\n\r\n    function uint2str(uint8 _i)\r\n        internal\r\n        pure\r\n        returns (string memory _uintAsString)\r\n    {\r\n        if (_i == 0) {\r\n            return \"0\";\r\n        }\r\n        uint256 j = _i;\r\n        uint256 len = 0;\r\n        while (j != 0) {\r\n            len++;\r\n            j /= 10;\r\n        }\r\n        bytes memory bstr = new bytes(len);\r\n        uint256 k = len;\r\n        while (true) {\r\n            k = k - 1;\r\n            uint8 temp = (48 + uint8(_i - (_i / 10) * 10));\r\n            bytes1 b1 = bytes1(temp);\r\n            bstr[k] = b1;\r\n            _i /= 10;\r\n            if (_i != 0) {\r\n                continue;\r\n            } else break;\r\n        }\r\n        return string(bstr);\r\n    }\r\n}\r\n",
  "sourcePath": "E:/blochain/Lab3/BlackJackContract/contracts/BlackJack.sol",
  "compiler": {
    "name": "solc",
    "version": "0.5.16+commit.9c3226ce.Emscripten.clang"
  },
  "schemaVersion": "3.3.4",
  "updatedAt": "2021-04-13T12:41:10.759Z",
  "devdoc": {
    "methods": {
      "approve(address,uint256)": {
        "params": {
          "_spender": "The address authorized to spend",
          "_value": "the max amount they can spend"
        }
      },
      "burn(uint256)": {
        "params": {
          "_value": "the amount of money to burn"
        }
      },
      "burnFrom(address,uint256)": {
        "params": {
          "_from": "the address of the sender",
          "_value": "the amount of money to burn"
        }
      },
      "transferFrom(address,address,uint256)": {
        "params": {
          "_from": "The address of the sender",
          "_to": "The address of the recipient",
          "_value": "the amount to send"
        }
      },
      "transferShmel(address,address,uint256)": {
        "params": {
          "_to": "The address of the recipient",
          "_value": "the amount to send"
        }
      }
    }
  },
  "userdoc": {
    "methods": {
      "approve(address,uint256)": {
        "notice": "Set allowance for other address      * Allows `_spender` to spend no more than `_value` tokens on your behalf "
      },
      "burn(uint256)": {
        "notice": "Destroy tokens      * Remove `_value` tokens from the system irreversibly "
      },
      "burnFrom(address,uint256)": {
        "notice": "Destroy tokens from other account      * Remove `_value` tokens from the system irreversibly on behalf of `_from`. "
      },
      "constructor": "Constructor function      * Initializes contract with initial supply tokens to the creator of the contract",
      "setTotalSupply(uint256)": {
        "notice": "Internal transfer, only can be called by this contrac"
      },
      "transferFrom(address,address,uint256)": {
        "notice": "Transfer tokens from other address      * Send `_value` tokens to `_to` on behalf of `_from` "
      },
      "transferShmel(address,address,uint256)": {
        "notice": "Transfer tokens      * Send `_value` tokens to `_to` from your account "
      }
    }
  }
}